{
  "_format": "hh-sol-artifact-1",
  "contractName": "Roshambo",
  "sourceName": "contracts/Roshambo.sol",
  "abi": [
    {
      "inputs": [
        {
          "internalType": "string[]",
          "name": "characterNames",
          "type": "string[]"
        },
        {
          "internalType": "string[]",
          "name": "characterImageURIs",
          "type": "string[]"
        },
        {
          "internalType": "uint256[]",
          "name": "characterBankroll",
          "type": "uint256[]"
        },
        {
          "internalType": "string",
          "name": "bossName",
          "type": "string"
        },
        {
          "internalType": "string",
          "name": "bossImageURI",
          "type": "string"
        },
        {
          "internalType": "uint256",
          "name": "bossBankroll",
          "type": "uint256"
        }
      ],
      "stateMutability": "nonpayable",
      "type": "constructor"
    },
    {
      "anonymous": false,
      "inputs": [
        {
          "indexed": true,
          "internalType": "address",
          "name": "owner",
          "type": "address"
        },
        {
          "indexed": true,
          "internalType": "address",
          "name": "approved",
          "type": "address"
        },
        {
          "indexed": true,
          "internalType": "uint256",
          "name": "tokenId",
          "type": "uint256"
        }
      ],
      "name": "Approval",
      "type": "event"
    },
    {
      "anonymous": false,
      "inputs": [
        {
          "indexed": true,
          "internalType": "address",
          "name": "owner",
          "type": "address"
        },
        {
          "indexed": true,
          "internalType": "address",
          "name": "operator",
          "type": "address"
        },
        {
          "indexed": false,
          "internalType": "bool",
          "name": "approved",
          "type": "bool"
        }
      ],
      "name": "ApprovalForAll",
      "type": "event"
    },
    {
      "anonymous": false,
      "inputs": [
        {
          "indexed": false,
          "internalType": "address",
          "name": "sender",
          "type": "address"
        },
        {
          "indexed": false,
          "internalType": "uint256",
          "name": "tokenId",
          "type": "uint256"
        },
        {
          "indexed": false,
          "internalType": "uint256",
          "name": "characterIndex",
          "type": "uint256"
        }
      ],
      "name": "CharacterNFTMinted",
      "type": "event"
    },
    {
      "anonymous": false,
      "inputs": [
        {
          "indexed": true,
          "internalType": "address",
          "name": "from",
          "type": "address"
        },
        {
          "indexed": true,
          "internalType": "address",
          "name": "to",
          "type": "address"
        },
        {
          "indexed": true,
          "internalType": "uint256",
          "name": "tokenId",
          "type": "uint256"
        }
      ],
      "name": "Transfer",
      "type": "event"
    },
    {
      "anonymous": false,
      "inputs": [
        {
          "indexed": false,
          "internalType": "address",
          "name": "sender",
          "type": "address"
        },
        {
          "indexed": false,
          "internalType": "uint256",
          "name": "tokenId",
          "type": "uint256"
        },
        {
          "indexed": false,
          "internalType": "uint256",
          "name": "newBossBankroll",
          "type": "uint256"
        },
        {
          "indexed": false,
          "internalType": "uint256",
          "name": "newPlayerBankroll",
          "type": "uint256"
        },
        {
          "indexed": false,
          "internalType": "uint256",
          "name": "bossPlayed",
          "type": "uint256"
        },
        {
          "indexed": false,
          "internalType": "uint256",
          "name": "playerPlayed",
          "type": "uint256"
        }
      ],
      "name": "TurnComplete",
      "type": "event"
    },
    {
      "inputs": [
        {
          "internalType": "address",
          "name": "to",
          "type": "address"
        },
        {
          "internalType": "uint256",
          "name": "tokenId",
          "type": "uint256"
        }
      ],
      "name": "approve",
      "outputs": [],
      "stateMutability": "nonpayable",
      "type": "function"
    },
    {
      "inputs": [
        {
          "internalType": "address",
          "name": "owner",
          "type": "address"
        }
      ],
      "name": "balanceOf",
      "outputs": [
        {
          "internalType": "uint256",
          "name": "",
          "type": "uint256"
        }
      ],
      "stateMutability": "view",
      "type": "function"
    },
    {
      "inputs": [],
      "name": "bigBoss",
      "outputs": [
        {
          "internalType": "string",
          "name": "name",
          "type": "string"
        },
        {
          "internalType": "string",
          "name": "imageURI",
          "type": "string"
        },
        {
          "internalType": "uint256",
          "name": "bankroll",
          "type": "uint256"
        },
        {
          "internalType": "uint256",
          "name": "maxBankroll",
          "type": "uint256"
        }
      ],
      "stateMutability": "view",
      "type": "function"
    },
    {
      "inputs": [],
      "name": "checkIfUserHasNFT",
      "outputs": [
        {
          "components": [
            {
              "internalType": "uint256",
              "name": "characterIndex",
              "type": "uint256"
            },
            {
              "internalType": "string",
              "name": "name",
              "type": "string"
            },
            {
              "internalType": "string",
              "name": "imageURI",
              "type": "string"
            },
            {
              "internalType": "uint256",
              "name": "bankroll",
              "type": "uint256"
            },
            {
              "internalType": "uint256",
              "name": "maxBankroll",
              "type": "uint256"
            }
          ],
          "internalType": "struct Roshambo.CharacterAttributes",
          "name": "",
          "type": "tuple"
        }
      ],
      "stateMutability": "view",
      "type": "function"
    },
    {
      "inputs": [],
      "name": "getAllDefaultCharacters",
      "outputs": [
        {
          "components": [
            {
              "internalType": "uint256",
              "name": "characterIndex",
              "type": "uint256"
            },
            {
              "internalType": "string",
              "name": "name",
              "type": "string"
            },
            {
              "internalType": "string",
              "name": "imageURI",
              "type": "string"
            },
            {
              "internalType": "uint256",
              "name": "bankroll",
              "type": "uint256"
            },
            {
              "internalType": "uint256",
              "name": "maxBankroll",
              "type": "uint256"
            }
          ],
          "internalType": "struct Roshambo.CharacterAttributes[]",
          "name": "",
          "type": "tuple[]"
        }
      ],
      "stateMutability": "view",
      "type": "function"
    },
    {
      "inputs": [
        {
          "internalType": "uint256",
          "name": "tokenId",
          "type": "uint256"
        }
      ],
      "name": "getApproved",
      "outputs": [
        {
          "internalType": "address",
          "name": "",
          "type": "address"
        }
      ],
      "stateMutability": "view",
      "type": "function"
    },
    {
      "inputs": [],
      "name": "getBigBoss",
      "outputs": [
        {
          "components": [
            {
              "internalType": "string",
              "name": "name",
              "type": "string"
            },
            {
              "internalType": "string",
              "name": "imageURI",
              "type": "string"
            },
            {
              "internalType": "uint256",
              "name": "bankroll",
              "type": "uint256"
            },
            {
              "internalType": "uint256",
              "name": "maxBankroll",
              "type": "uint256"
            }
          ],
          "internalType": "struct Roshambo.BigBoss",
          "name": "",
          "type": "tuple"
        }
      ],
      "stateMutability": "view",
      "type": "function"
    },
    {
      "inputs": [
        {
          "internalType": "address",
          "name": "owner",
          "type": "address"
        },
        {
          "internalType": "address",
          "name": "operator",
          "type": "address"
        }
      ],
      "name": "isApprovedForAll",
      "outputs": [
        {
          "internalType": "bool",
          "name": "",
          "type": "bool"
        }
      ],
      "stateMutability": "view",
      "type": "function"
    },
    {
      "inputs": [
        {
          "internalType": "uint256",
          "name": "_characterIndex",
          "type": "uint256"
        }
      ],
      "name": "mintCharacterNFT",
      "outputs": [],
      "stateMutability": "nonpayable",
      "type": "function"
    },
    {
      "inputs": [],
      "name": "name",
      "outputs": [
        {
          "internalType": "string",
          "name": "",
          "type": "string"
        }
      ],
      "stateMutability": "view",
      "type": "function"
    },
    {
      "inputs": [
        {
          "internalType": "uint256",
          "name": "",
          "type": "uint256"
        }
      ],
      "name": "nftHolderAttributes",
      "outputs": [
        {
          "internalType": "uint256",
          "name": "characterIndex",
          "type": "uint256"
        },
        {
          "internalType": "string",
          "name": "name",
          "type": "string"
        },
        {
          "internalType": "string",
          "name": "imageURI",
          "type": "string"
        },
        {
          "internalType": "uint256",
          "name": "bankroll",
          "type": "uint256"
        },
        {
          "internalType": "uint256",
          "name": "maxBankroll",
          "type": "uint256"
        }
      ],
      "stateMutability": "view",
      "type": "function"
    },
    {
      "inputs": [
        {
          "internalType": "address",
          "name": "",
          "type": "address"
        }
      ],
      "name": "nftHolders",
      "outputs": [
        {
          "internalType": "uint256",
          "name": "",
          "type": "uint256"
        }
      ],
      "stateMutability": "view",
      "type": "function"
    },
    {
      "inputs": [
        {
          "internalType": "uint256",
          "name": "tokenId",
          "type": "uint256"
        }
      ],
      "name": "ownerOf",
      "outputs": [
        {
          "internalType": "address",
          "name": "",
          "type": "address"
        }
      ],
      "stateMutability": "view",
      "type": "function"
    },
    {
      "inputs": [
        {
          "internalType": "uint256",
          "name": "value",
          "type": "uint256"
        },
        {
          "internalType": "uint256",
          "name": "bet",
          "type": "uint256"
        },
        {
          "internalType": "uint256",
          "name": "seed",
          "type": "uint256"
        }
      ],
      "name": "play",
      "outputs": [],
      "stateMutability": "nonpayable",
      "type": "function"
    },
    {
      "inputs": [
        {
          "internalType": "address",
          "name": "from",
          "type": "address"
        },
        {
          "internalType": "address",
          "name": "to",
          "type": "address"
        },
        {
          "internalType": "uint256",
          "name": "tokenId",
          "type": "uint256"
        }
      ],
      "name": "safeTransferFrom",
      "outputs": [],
      "stateMutability": "nonpayable",
      "type": "function"
    },
    {
      "inputs": [
        {
          "internalType": "address",
          "name": "from",
          "type": "address"
        },
        {
          "internalType": "address",
          "name": "to",
          "type": "address"
        },
        {
          "internalType": "uint256",
          "name": "tokenId",
          "type": "uint256"
        },
        {
          "internalType": "bytes",
          "name": "_data",
          "type": "bytes"
        }
      ],
      "name": "safeTransferFrom",
      "outputs": [],
      "stateMutability": "nonpayable",
      "type": "function"
    },
    {
      "inputs": [
        {
          "internalType": "address",
          "name": "operator",
          "type": "address"
        },
        {
          "internalType": "bool",
          "name": "approved",
          "type": "bool"
        }
      ],
      "name": "setApprovalForAll",
      "outputs": [],
      "stateMutability": "nonpayable",
      "type": "function"
    },
    {
      "inputs": [
        {
          "internalType": "bytes4",
          "name": "interfaceId",
          "type": "bytes4"
        }
      ],
      "name": "supportsInterface",
      "outputs": [
        {
          "internalType": "bool",
          "name": "",
          "type": "bool"
        }
      ],
      "stateMutability": "view",
      "type": "function"
    },
    {
      "inputs": [],
      "name": "symbol",
      "outputs": [
        {
          "internalType": "string",
          "name": "",
          "type": "string"
        }
      ],
      "stateMutability": "view",
      "type": "function"
    },
    {
      "inputs": [
        {
          "internalType": "uint256",
          "name": "_tokenId",
          "type": "uint256"
        }
      ],
      "name": "tokenURI",
      "outputs": [
        {
          "internalType": "string",
          "name": "",
          "type": "string"
        }
      ],
      "stateMutability": "view",
      "type": "function"
    },
    {
      "inputs": [
        {
          "internalType": "address",
          "name": "from",
          "type": "address"
        },
        {
          "internalType": "address",
          "name": "to",
          "type": "address"
        },
        {
          "internalType": "uint256",
          "name": "tokenId",
          "type": "uint256"
        }
      ],
      "name": "transferFrom",
      "outputs": [],
      "stateMutability": "nonpayable",
      "type": "function"
    }
  ],
  "bytecode": "0x60806040523480156200001157600080fd5b5060405162005ec638038062005ec68339818101604052810190620000379190620008b7565b6040518060400160405280601081526020017f526f7368616d626f204c6567656e6473000000000000000000000000000000008152506040518060400160405280600481526020017f524f5348000000000000000000000000000000000000000000000000000000008152508160009080519060200190620000bb9291906200061f565b508060019080519060200190620000d49291906200061f565b50505060005b86518110156200049857600b6040518060a0016040528083815260200189848151811062000131577f4e487b7100000000000000000000000000000000000000000000000000000000600052603260045260246000fd5b6020026020010151815260200188848151811062000178577f4e487b7100000000000000000000000000000000000000000000000000000000600052603260045260246000fd5b60200260200101518152602001878481518110620001bf577f4e487b7100000000000000000000000000000000000000000000000000000000600052603260045260246000fd5b6020026020010151815260200187848151811062000206577f4e487b7100000000000000000000000000000000000000000000000000000000600052603260045260246000fd5b60200260200101518152509080600181540180825580915050600190039060005260206000209060050201600090919091909150600082015181600001556020820151816001019080519060200190620002629291906200061f565b506040820151816002019080519060200190620002819291906200061f565b50606082015181600301556080820151816004015550506000600b8281548110620002d5577f4e487b7100000000000000000000000000000000000000000000000000000000600052603260045260246000fd5b90600052602060002090600502016040518060a0016040529081600082015481526020016001820180546200030a9062000bf4565b80601f0160208091040260200160405190810160405280929190818152602001828054620003389062000bf4565b8015620003895780601f106200035d5761010080835404028352916020019162000389565b820191906000526020600020905b8154815290600101906020018083116200036b57829003601f168201915b50505050508152602001600282018054620003a49062000bf4565b80601f0160208091040260200160405190810160405280929190818152602001828054620003d29062000bf4565b8015620004235780601f10620003f75761010080835404028352916020019162000423565b820191906000526020600020905b8154815290600101906020018083116200040557829003601f168201915b50505050508152602001600382015481526020016004820154815250509050620004806040518060600160405280602b815260200162005e9b602b91398260200151836060015184604001516200053460201b620024b81760201c565b5060018162000490919062000b57565b9050620000da565b50620004b0600a620005e060201b6200255a1760201c565b60405180608001604052808481526020018381526020018281526020018281525060066000820151816000019080519060200190620004f19291906200061f565b506020820151816001019080519060200190620005109291906200061f565b50604082015181600201556060820151816003015590505050505050505062000d18565b620005da8484848460405160240162000551949392919062000a1c565b6040516020818303038152906040527f8d142cdd000000000000000000000000000000000000000000000000000000007bffffffffffffffffffffffffffffffffffffffffffffffffffffffff19166020820180517bffffffffffffffffffffffffffffffffffffffffffffffffffffffff8381831617835250505050620005f660201b60201c565b50505050565b6001816000016000828254019250508190555050565b60008151905060006a636f6e736f6c652e6c6f679050602083016000808483855afa5050505050565b8280546200062d9062000bf4565b90600052602060002090601f0160209004810192826200065157600085556200069d565b82601f106200066c57805160ff19168380011785556200069d565b828001600101855582156200069d579182015b828111156200069c5782518255916020019190600101906200067f565b5b509050620006ac9190620006b0565b5090565b5b80821115620006cb576000816000905550600101620006b1565b5090565b6000620006e6620006e08462000aa7565b62000a7e565b905080838252602082019050828560208602820111156200070657600080fd5b60005b858110156200075557815167ffffffffffffffff8111156200072a57600080fd5b80860162000739898262000873565b8552602085019450602084019350505060018101905062000709565b5050509392505050565b600062000776620007708462000ad6565b62000a7e565b905080838252602082019050828560208602820111156200079657600080fd5b60005b85811015620007ca5781620007af8882620008a0565b84526020840193506020830192505060018101905062000799565b5050509392505050565b6000620007eb620007e58462000b05565b62000a7e565b9050828152602081018484840111156200080457600080fd5b6200081184828562000bbe565b509392505050565b600082601f8301126200082b57600080fd5b81516200083d848260208601620006cf565b91505092915050565b600082601f8301126200085857600080fd5b81516200086a8482602086016200075f565b91505092915050565b600082601f8301126200088557600080fd5b815162000897848260208601620007d4565b91505092915050565b600081519050620008b18162000cfe565b92915050565b60008060008060008060c08789031215620008d157600080fd5b600087015167ffffffffffffffff811115620008ec57600080fd5b620008fa89828a0162000819565b965050602087015167ffffffffffffffff8111156200091857600080fd5b6200092689828a0162000819565b955050604087015167ffffffffffffffff8111156200094457600080fd5b6200095289828a0162000846565b945050606087015167ffffffffffffffff8111156200097057600080fd5b6200097e89828a0162000873565b935050608087015167ffffffffffffffff8111156200099c57600080fd5b620009aa89828a0162000873565b92505060a0620009bd89828a01620008a0565b9150509295509295509295565b6000620009d78262000b3b565b620009e3818562000b46565b9350620009f581856020860162000bbe565b62000a008162000ced565b840191505092915050565b62000a168162000bb4565b82525050565b6000608082019050818103600083015262000a388187620009ca565b9050818103602083015262000a4e8186620009ca565b905062000a5f604083018562000a0b565b818103606083015262000a738184620009ca565b905095945050505050565b600062000a8a62000a9d565b905062000a98828262000c2a565b919050565b6000604051905090565b600067ffffffffffffffff82111562000ac55762000ac462000cbe565b5b602082029050602081019050919050565b600067ffffffffffffffff82111562000af45762000af362000cbe565b5b602082029050602081019050919050565b600067ffffffffffffffff82111562000b235762000b2262000cbe565b5b62000b2e8262000ced565b9050602081019050919050565b600081519050919050565b600082825260208201905092915050565b600062000b648262000bb4565b915062000b718362000bb4565b9250827fffffffffffffffffffffffffffffffffffffffffffffffffffffffffffffffff0382111562000ba95762000ba862000c60565b5b828201905092915050565b6000819050919050565b60005b8381101562000bde57808201518184015260208101905062000bc1565b8381111562000bee576000848401525b50505050565b6000600282049050600182168062000c0d57607f821691505b6020821081141562000c245762000c2362000c8f565b5b50919050565b62000c358262000ced565b810181811067ffffffffffffffff8211171562000c575762000c5662000cbe565b5b80604052505050565b7f4e487b7100000000000000000000000000000000000000000000000000000000600052601160045260246000fd5b7f4e487b7100000000000000000000000000000000000000000000000000000000600052602260045260246000fd5b7f4e487b7100000000000000000000000000000000000000000000000000000000600052604160045260246000fd5b6000601f19601f8301169050919050565b62000d098162000bb4565b811462000d1557600080fd5b50565b6151738062000d286000396000f3fe608060405234801561001057600080fd5b50600436106101375760003560e01c806395d89b41116100b8578063b88d4fde1161007c578063b88d4fde14610367578063b953084e14610383578063c87b56dd146103a1578063c8cf27f4146103d1578063e985e9c5146103ef578063f8b81ef71461041f57610137565b806395d89b41146102bc57806398da4c95146102da578063a22cb4651461030e578063a9c326791461032a578063ab2e5a1f1461034b57610137565b806323b872dd116100ff57806323b872dd146101f457806342842e0e146102105780636352211e1461022c57806370a082311461025c5780637df124a11461028c57610137565b806301ffc9a71461013c5780630665f9611461016c57806306fdde031461018a578063081812fc146101a8578063095ea7b3146101d8575b600080fd5b610156600480360381019061015191906138ec565b61043b565b60405161016391906141d5565b60405180910390f35b61017461051d565b604051610181919061459e565b60405180910390f35b61019261066f565b60405161019f91906141f0565b60405180910390f35b6101c260048036038101906101bd919061393e565b610701565b6040516101cf91906140b4565b60405180910390f35b6101f260048036038101906101ed91906138b0565b610786565b005b61020e600480360381019061020991906137aa565b61089e565b005b61022a600480360381019061022591906137aa565b6108fe565b005b6102466004803603810190610241919061393e565b61091e565b60405161025391906140b4565b60405180910390f35b61027660048036038101906102719190613745565b6109d0565b60405161028391906145e2565b60405180910390f35b6102a660048036038101906102a19190613745565b610a88565b6040516102b391906145e2565b60405180910390f35b6102c4610aa0565b6040516102d191906141f0565b60405180910390f35b6102f460048036038101906102ef919061393e565b610b32565b6040516103059594939291906145fd565b60405180910390f35b61032860048036038101906103239190613874565b610c78565b005b610332610df9565b60405161034294939291906142fd565b60405180910390f35b61036560048036038101906103609190613967565b610f27565b005b610381600480360381019061037c91906137f9565b611ab7565b005b61038b611b19565b60405161039891906141b3565b60405180910390f35b6103bb60048036038101906103b6919061393e565b611cba565b6040516103c891906141f0565b60405180910390f35b6103d9611eb7565b6040516103e691906145c0565b60405180910390f35b6104096004803603810190610404919061376e565b612085565b60405161041691906141d5565b60405180910390f35b6104396004803603810190610434919061393e565b612119565b005b60007f80ac58cd000000000000000000000000000000000000000000000000000000007bffffffffffffffffffffffffffffffffffffffffffffffffffffffff1916827bffffffffffffffffffffffffffffffffffffffffffffffffffffffff1916148061050657507f5b5e139f000000000000000000000000000000000000000000000000000000007bffffffffffffffffffffffffffffffffffffffffffffffffffffffff1916827bffffffffffffffffffffffffffffffffffffffffffffffffffffffff1916145b80610516575061051582612570565b5b9050919050565b61052561357a565b60066040518060800160405290816000820180546105429061490c565b80601f016020809104026020016040519081016040528092919081815260200182805461056e9061490c565b80156105bb5780601f10610590576101008083540402835291602001916105bb565b820191906000526020600020905b81548152906001019060200180831161059e57829003601f168201915b505050505081526020016001820180546105d49061490c565b80601f01602080910402602001604051908101604052809291908181526020018280546106009061490c565b801561064d5780601f106106225761010080835404028352916020019161064d565b820191906000526020600020905b81548152906001019060200180831161063057829003601f168201915b5050505050815260200160028201548152602001600382015481525050905090565b60606000805461067e9061490c565b80601f01602080910402602001604051908101604052809291908181526020018280546106aa9061490c565b80156106f75780601f106106cc576101008083540402835291602001916106f7565b820191906000526020600020905b8154815290600101906020018083116106da57829003601f168201915b5050505050905090565b600061070c826125da565b61074b576040517f08c379a0000000000000000000000000000000000000000000000000000000008152600401610742906144fe565b60405180910390fd5b6004600083815260200190815260200160002060009054906101000a900473ffffffffffffffffffffffffffffffffffffffff169050919050565b60006107918261091e565b90508073ffffffffffffffffffffffffffffffffffffffff168373ffffffffffffffffffffffffffffffffffffffff161415610802576040517f08c379a00000000000000000000000000000000000000000000000000000000081526004016107f99061455e565b60405180910390fd5b8073ffffffffffffffffffffffffffffffffffffffff16610821612646565b73ffffffffffffffffffffffffffffffffffffffff161480610850575061084f8161084a612646565b612085565b5b61088f576040517f08c379a00000000000000000000000000000000000000000000000000000000081526004016108869061447e565b60405180910390fd5b610899838361264e565b505050565b6108af6108a9612646565b82612707565b6108ee576040517f08c379a00000000000000000000000000000000000000000000000000000000081526004016108e59061457e565b60405180910390fd5b6108f98383836127e5565b505050565b61091983838360405180602001604052806000815250611ab7565b505050565b6000806002600084815260200190815260200160002060009054906101000a900473ffffffffffffffffffffffffffffffffffffffff169050600073ffffffffffffffffffffffffffffffffffffffff168173ffffffffffffffffffffffffffffffffffffffff1614156109c7576040517f08c379a00000000000000000000000000000000000000000000000000000000081526004016109be906144be565b60405180910390fd5b80915050919050565b60008073ffffffffffffffffffffffffffffffffffffffff168273ffffffffffffffffffffffffffffffffffffffff161415610a41576040517f08c379a0000000000000000000000000000000000000000000000000000000008152600401610a389061449e565b60405180910390fd5b600360008373ffffffffffffffffffffffffffffffffffffffff1673ffffffffffffffffffffffffffffffffffffffff168152602001908152602001600020549050919050565b600d6020528060005260406000206000915090505481565b606060018054610aaf9061490c565b80601f0160208091040260200160405190810160405280929190818152602001828054610adb9061490c565b8015610b285780601f10610afd57610100808354040283529160200191610b28565b820191906000526020600020905b815481529060010190602001808311610b0b57829003601f168201915b5050505050905090565b600c602052806000526040600020600091509050806000015490806001018054610b5b9061490c565b80601f0160208091040260200160405190810160405280929190818152602001828054610b879061490c565b8015610bd45780601f10610ba957610100808354040283529160200191610bd4565b820191906000526020600020905b815481529060010190602001808311610bb757829003601f168201915b505050505090806002018054610be99061490c565b80601f0160208091040260200160405190810160405280929190818152602001828054610c159061490c565b8015610c625780601f10610c3757610100808354040283529160200191610c62565b820191906000526020600020905b815481529060010190602001808311610c4557829003601f168201915b5050505050908060030154908060040154905085565b610c80612646565b73ffffffffffffffffffffffffffffffffffffffff168273ffffffffffffffffffffffffffffffffffffffff161415610cee576040517f08c379a0000000000000000000000000000000000000000000000000000000008152600401610ce59061441e565b60405180910390fd5b8060056000610cfb612646565b73ffffffffffffffffffffffffffffffffffffffff1673ffffffffffffffffffffffffffffffffffffffff16815260200190815260200160002060008473ffffffffffffffffffffffffffffffffffffffff1673ffffffffffffffffffffffffffffffffffffffff16815260200190815260200160002060006101000a81548160ff0219169083151502179055508173ffffffffffffffffffffffffffffffffffffffff16610da8612646565b73ffffffffffffffffffffffffffffffffffffffff167f17307eab39ab6107e8899845ad3d59bd9653f200f220920489ca2b5937696c3183604051610ded91906141d5565b60405180910390a35050565b6006806000018054610e0a9061490c565b80601f0160208091040260200160405190810160405280929190818152602001828054610e369061490c565b8015610e835780601f10610e5857610100808354040283529160200191610e83565b820191906000526020600020905b815481529060010190602001808311610e6657829003601f168201915b505050505090806001018054610e989061490c565b80601f0160208091040260200160405190810160405280929190818152602001828054610ec49061490c565b8015610f115780601f10610ee657610100808354040283529160200191610f11565b820191906000526020600020905b815481529060010190602001808311610ef457829003601f168201915b5050505050908060020154908060030154905084565b6000600d60003373ffffffffffffffffffffffffffffffffffffffff1673ffffffffffffffffffffffffffffffffffffffff1681526020019081526020016000205490506000600c60008381526020019081526020016000206040518060a001604052908160008201548152602001600182018054610fa59061490c565b80601f0160208091040260200160405190810160405280929190818152602001828054610fd19061490c565b801561101e5780601f10610ff35761010080835404028352916020019161101e565b820191906000526020600020905b81548152906001019060200180831161100157829003601f168201915b505050505081526020016002820180546110379061490c565b80601f01602080910402602001604051908101604052809291908181526020018280546110639061490c565b80156110b05780601f10611085576101008083540402835291602001916110b0565b820191906000526020600020905b81548152906001019060200180831161109357829003601f168201915b505050505081526020016003820154815260200160048201548152505090506111176040518060400160405280601181526020017f5374617274696e67202d2025733a20256400000000000000000000000000000081525082602001518360600151612a41565b6111e96040518060400160405280601181526020017f5374617274696e67202d2025733a202564000000000000000000000000000000815250600660000180546111609061490c565b80601f016020809104026020016040519081016040528092919081815260200182805461118c9061490c565b80156111d95780601f106111ae576101008083540402835291602001916111d9565b820191906000526020600020905b8154815290600101906020018083116111bc57829003601f168201915b5050505050600660020154612a41565b8060600151841115611230576040517f08c379a00000000000000000000000000000000000000000000000000000000081526004016112279061453e565b60405180910390fd5b600660020154841115611278576040517f08c379a000000000000000000000000000000000000000000000000000000000815260040161126f9061443e565b60405180910390fd5b60006112c761128b600660020154612ae0565b61129486612ae0565b6112a18560600151612ae0565b6040516020016112b393929190613fd4565b604051602081830303815290604052612c8d565b905060006003826112d891906149b8565b90506113196040518060400160405280600681526020017f72616e643a20000000000000000000000000000000000000000000000000000081525083612cc0565b6113586040518060400160405280600881526020017f706c617965643a2000000000000000000000000000000000000000000000000081525082612cc0565b60008088146113e057600188146113a4576040518060400160405280600881526020017f73636973736f72730000000000000000000000000000000000000000000000008152506113db565b6040518060400160405280600581526020017f70617065720000000000000000000000000000000000000000000000000000008152505b611417565b6040518060400160405280600481526020017f726f636b000000000000000000000000000000000000000000000000000000008152505b905060008083146114a15760018314611465576040518060400160405280600881526020017f73636973736f727300000000000000000000000000000000000000000000000081525061149c565b6040518060400160405280600581526020017f70617065720000000000000000000000000000000000000000000000000000008152505b6114d8565b6040518060400160405280600481526020017f726f636b000000000000000000000000000000000000000000000000000000008152505b905061151e6040518060400160405280601581526020017f506c6179657220257320706c617965642025732e200000000000000000000000815250866020015184612d5c565b6115eb6040518060400160405280601181526020017f426f737320257320706c61796564202573000000000000000000000000000000815250600660000180546115679061490c565b80601f01602080910402602001604051908101604052809291908181526020018280546115939061490c565b80156115e05780601f106115b5576101008083540402835291602001916115e0565b820191906000526020600020905b8154815290600101906020018083116115c357829003601f168201915b505050505083612d5c565b88831415611636576116316040518060400160405280600481526020017f7075736800000000000000000000000000000000000000000000000000000000815250612dfb565b61188a565b6000831480156116465750600189145b156116995787600c600088815260200190815260200160002060030160008282546116719190614741565b92505081905550876006600201600082825461168d9190614822565b92505081905550611889565b6000831480156116a95750600289145b156116fc5787600c600088815260200190815260200160002060030160008282546116d49190614822565b9250508190555087600660020160008282546116f09190614741565b92505081905550611888565b60018314801561170c5750600089145b1561175f5787600c600088815260200190815260200160002060030160008282546117379190614822565b9250508190555087600660020160008282546117539190614741565b92505081905550611887565b60018314801561176f5750600289145b156117c25787600c6000888152602001908152602001600020600301600082825461179a9190614741565b9250508190555087600660020160008282546117b69190614822565b92505081905550611886565b6002831480156117d25750600089145b156118255787600c600088815260200190815260200160002060030160008282546117fd9190614741565b9250508190555087600660020160008282546118199190614822565b92505081905550611885565b6002831480156118355750600189145b156118845787600c600088815260200190815260200160002060030160008282546118609190614822565b92505081905550876006600201600082825461187c9190614741565b925050819055505b5b5b5b5b5b5b61197e6040518060400160405280600f81526020017f456e64696e67202d2025733a2025640000000000000000000000000000000000815250600c600089815260200190815260200160002060010180546118e49061490c565b80601f01602080910402602001604051908101604052809291908181526020018280546119109061490c565b801561195d5780601f106119325761010080835404028352916020019161195d565b820191906000526020600020905b81548152906001019060200180831161194057829003601f168201915b5050505050600c60008a815260200190815260200160002060030154612a41565b611a506040518060400160405280600f81526020017f456e64696e67202d2025733a2025640000000000000000000000000000000000815250600660000180546119c79061490c565b80601f01602080910402602001604051908101604052809291908181526020018280546119f39061490c565b8015611a405780601f10611a1557610100808354040283529160200191611a40565b820191906000526020600020905b815481529060010190602001808311611a2357829003601f168201915b5050505050600660020154612a41565b7fca8672846e032615bcc783fbe461671b16e32849c60271f2eaf821c1395769dc3387600660020154600c60008b815260200190815260200160002060030154878e604051611aa496959493929190614152565b60405180910390a1505050505050505050565b611ac8611ac2612646565b83612707565b611b07576040517f08c379a0000000000000000000000000000000000000000000000000000000008152600401611afe9061457e565b60405180910390fd5b611b1384848484612e94565b50505050565b6060600b805480602002602001604051908101604052809291908181526020016000905b82821015611cb157838290600052602060002090600502016040518060a001604052908160008201548152602001600182018054611b7a9061490c565b80601f0160208091040260200160405190810160405280929190818152602001828054611ba69061490c565b8015611bf35780601f10611bc857610100808354040283529160200191611bf3565b820191906000526020600020905b815481529060010190602001808311611bd657829003601f168201915b50505050508152602001600282018054611c0c9061490c565b80601f0160208091040260200160405190810160405280929190818152602001828054611c389061490c565b8015611c855780601f10611c5a57610100808354040283529160200191611c85565b820191906000526020600020905b815481529060010190602001808311611c6857829003601f168201915b505050505081526020016003820154815260200160048201548152505081526020019060010190611b3d565b50505050905090565b60606000600c60008481526020019081526020016000206040518060a001604052908160008201548152602001600182018054611cf69061490c565b80601f0160208091040260200160405190810160405280929190818152602001828054611d229061490c565b8015611d6f5780601f10611d4457610100808354040283529160200191611d6f565b820191906000526020600020905b815481529060010190602001808311611d5257829003601f168201915b50505050508152602001600282018054611d889061490c565b80601f0160208091040260200160405190810160405280929190818152602001828054611db49061490c565b8015611e015780601f10611dd657610100808354040283529160200191611e01565b820191906000526020600020905b815481529060010190602001808311611de457829003601f168201915b505050505081526020016003820154815260200160048201548152505090506000611e2f8260600151612ae0565b90506000611e408360800151612ae0565b90506000611e848460200151611e5588612ae0565b86604001518686604051602001611e70959493929190614005565b604051602081830303815290604052612ef0565b9050600081604051602001611e999190614092565b60405160208183030381529060405290508095505050505050919050565b611ebf6135a2565b6000600d60003373ffffffffffffffffffffffffffffffffffffffff1673ffffffffffffffffffffffffffffffffffffffff168152602001908152602001600020549050600081111561207457600c60008281526020019081526020016000206040518060a001604052908160008201548152602001600182018054611f449061490c565b80601f0160208091040260200160405190810160405280929190818152602001828054611f709061490c565b8015611fbd5780601f10611f9257610100808354040283529160200191611fbd565b820191906000526020600020905b815481529060010190602001808311611fa057829003601f168201915b50505050508152602001600282018054611fd69061490c565b80601f01602080910402602001604051908101604052809291908181526020018280546120029061490c565b801561204f5780601f106120245761010080835404028352916020019161204f565b820191906000526020600020905b81548152906001019060200180831161203257829003601f168201915b5050505050815260200160038201548152602001600482015481525050915050612082565b61207c6135a2565b80925050505b90565b6000600560008473ffffffffffffffffffffffffffffffffffffffff1673ffffffffffffffffffffffffffffffffffffffff16815260200190815260200160002060008373ffffffffffffffffffffffffffffffffffffffff1673ffffffffffffffffffffffffffffffffffffffff16815260200190815260200160002060009054906101000a900460ff16905092915050565b6000612125600a6130ae565b905061213133826130bc565b60006040518060a00160405280848152602001600b858154811061217e577f4e487b7100000000000000000000000000000000000000000000000000000000600052603260045260246000fd5b9060005260206000209060050201600101805461219a9061490c565b80601f01602080910402602001604051908101604052809291908181526020018280546121c69061490c565b80156122135780601f106121e857610100808354040283529160200191612213565b820191906000526020600020905b8154815290600101906020018083116121f657829003601f168201915b50505050508152602001600b8581548110612257577f4e487b7100000000000000000000000000000000000000000000000000000000600052603260045260246000fd5b906000526020600020906005020160020180546122739061490c565b80601f016020809104026020016040519081016040528092919081815260200182805461229f9061490c565b80156122ec5780601f106122c1576101008083540402835291602001916122ec565b820191906000526020600020905b8154815290600101906020018083116122cf57829003601f168201915b50505050508152602001600b8581548110612330577f4e487b7100000000000000000000000000000000000000000000000000000000600052603260045260246000fd5b9060005260206000209060050201600301548152602001600b8581548110612381577f4e487b7100000000000000000000000000000000000000000000000000000000600052603260045260246000fd5b906000526020600020906005020160030154815250905080600c60008481526020019081526020016000206000820151816000015560208201518160010190805190602001906123d29291906135d1565b5060408201518160020190805190602001906123ef9291906135d1565b50606082015181600301556080820151816004015590505061242a6040518060600160405280602b81526020016150d3602b913983856130da565b81600d60003373ffffffffffffffffffffffffffffffffffffffff1673ffffffffffffffffffffffffffffffffffffffff16815260200190815260200160002081905550612478600a61255a565b7f4bc303fd457a97b4691b9af582ce71868a3d258638c8d4f8c60988a0f0bfb8cd3383856040516124ab9392919061411b565b60405180910390a1505050565b612554848484846040516024016124d294939291906142a3565b6040516020818303038152906040527f8d142cdd000000000000000000000000000000000000000000000000000000007bffffffffffffffffffffffffffffffffffffffffffffffffffffffff19166020820180517bffffffffffffffffffffffffffffffffffffffffffffffffffffffff8381831617835250505050613179565b50505050565b6001816000016000828254019250508190555050565b60007f01ffc9a7000000000000000000000000000000000000000000000000000000007bffffffffffffffffffffffffffffffffffffffffffffffffffffffff1916827bffffffffffffffffffffffffffffffffffffffffffffffffffffffff1916149050919050565b60008073ffffffffffffffffffffffffffffffffffffffff166002600084815260200190815260200160002060009054906101000a900473ffffffffffffffffffffffffffffffffffffffff1673ffffffffffffffffffffffffffffffffffffffff1614159050919050565b600033905090565b816004600083815260200190815260200160002060006101000a81548173ffffffffffffffffffffffffffffffffffffffff021916908373ffffffffffffffffffffffffffffffffffffffff160217905550808273ffffffffffffffffffffffffffffffffffffffff166126c18361091e565b73ffffffffffffffffffffffffffffffffffffffff167f8c5be1e5ebec7d5bd14f71427d1e84f3dd0314c0f7b2291e5b200ac8c7c3b92560405160405180910390a45050565b6000612712826125da565b612751576040517f08c379a00000000000000000000000000000000000000000000000000000000081526004016127489061445e565b60405180910390fd5b600061275c8361091e565b90508073ffffffffffffffffffffffffffffffffffffffff168473ffffffffffffffffffffffffffffffffffffffff1614806127cb57508373ffffffffffffffffffffffffffffffffffffffff166127b384610701565b73ffffffffffffffffffffffffffffffffffffffff16145b806127dc57506127db8185612085565b5b91505092915050565b8273ffffffffffffffffffffffffffffffffffffffff166128058261091e565b73ffffffffffffffffffffffffffffffffffffffff161461285b576040517f08c379a00000000000000000000000000000000000000000000000000000000081526004016128529061451e565b60405180910390fd5b600073ffffffffffffffffffffffffffffffffffffffff168273ffffffffffffffffffffffffffffffffffffffff1614156128cb576040517f08c379a00000000000000000000000000000000000000000000000000000000081526004016128c2906143fe565b60405180910390fd5b6128d68383836131a2565b6128e160008261264e565b6001600360008573ffffffffffffffffffffffffffffffffffffffff1673ffffffffffffffffffffffffffffffffffffffff16815260200190815260200160002060008282546129319190614822565b925050819055506001600360008473ffffffffffffffffffffffffffffffffffffffff1673ffffffffffffffffffffffffffffffffffffffff16815260200190815260200160002060008282546129889190614741565b92505081905550816002600083815260200190815260200160002060006101000a81548173ffffffffffffffffffffffffffffffffffffffff021916908373ffffffffffffffffffffffffffffffffffffffff160217905550808273ffffffffffffffffffffffffffffffffffffffff168473ffffffffffffffffffffffffffffffffffffffff167fddf252ad1be2c89b69c2b068fc378daa952ba7f163c4a11628f55a4df523b3ef60405160405180910390a4505050565b612adb838383604051602401612a599392919061425e565b6040516020818303038152906040527ff362ca59000000000000000000000000000000000000000000000000000000007bffffffffffffffffffffffffffffffffffffffffffffffffffffffff19166020820180517bffffffffffffffffffffffffffffffffffffffffffffffffffffffff8381831617835250505050613179565b505050565b60606000821415612b28576040518060400160405280600181526020017f30000000000000000000000000000000000000000000000000000000000000008152509050612c88565b600082905060005b60008214612b5a578080612b439061496f565b915050600a82612b539190614797565b9150612b30565b60008167ffffffffffffffff811115612b9c577f4e487b7100000000000000000000000000000000000000000000000000000000600052604160045260246000fd5b6040519080825280601f01601f191660200182016040528015612bce5781602001600182028036833780820191505090505b5090505b60008514612c8157600182612be79190614822565b9150600a85612bf691906149b8565b6030612c029190614741565b60f81b818381518110612c3e577f4e487b7100000000000000000000000000000000000000000000000000000000600052603260045260246000fd5b60200101907effffffffffffffffffffffffffffffffffffffffffffffffffffffffffffff1916908160001a905350600a85612c7a9190614797565b9450612bd2565b8093505050505b919050565b600081604051602001612ca09190613fbd565b6040516020818303038152906040528051906020012060001c9050919050565b612d588282604051602401612cd6929190614350565b6040516020818303038152906040527f9710a9d0000000000000000000000000000000000000000000000000000000007bffffffffffffffffffffffffffffffffffffffffffffffffffffffff19166020820180517bffffffffffffffffffffffffffffffffffffffffffffffffffffffff8381831617835250505050613179565b5050565b612df6838383604051602401612d7493929190614212565b6040516020818303038152906040527f2ced7cef000000000000000000000000000000000000000000000000000000007bffffffffffffffffffffffffffffffffffffffffffffffffffffffff19166020820180517bffffffffffffffffffffffffffffffffffffffffffffffffffffffff8381831617835250505050613179565b505050565b612e9181604051602401612e0f91906141f0565b6040516020818303038152906040527f41304fac000000000000000000000000000000000000000000000000000000007bffffffffffffffffffffffffffffffffffffffffffffffffffffffff19166020820180517bffffffffffffffffffffffffffffffffffffffffffffffffffffffff8381831617835250505050613179565b50565b612e9f8484846127e5565b612eab848484846131a7565b612eea576040517f08c379a0000000000000000000000000000000000000000000000000000000008152600401612ee1906143be565b60405180910390fd5b50505050565b60606000825190506000811415612f1957604051806020016040528060008152509150506130a9565b60006003600283612f2a9190614741565b612f349190614797565b6004612f4091906147c8565b90506000602082612f519190614741565b67ffffffffffffffff811115612f90577f4e487b7100000000000000000000000000000000000000000000000000000000600052604160045260246000fd5b6040519080825280601f01601f191660200182016040528015612fc25781602001600182028036833780820191505090505b50905060006040518060600160405280604081526020016150fe604091399050600181016020830160005b868110156130665760038101905062ffffff818a015116603f8160121c168401518060081b905060ff603f83600c1c1686015116810190508060081b905060ff603f8360061c1686015116810190508060081b905060ff603f831686015116810190508060e01b90508084526004840193505050612fed565b50600386066001811461308057600281146130905761309b565b613d3d60f01b600283035261309b565b603d60f81b60018303525b508484525050819450505050505b919050565b600081600001549050919050565b6130d682826040518060200160405280600081525061333e565b5050565b6131748383836040516024016130f293929190614380565b6040516020818303038152906040527f969cdd03000000000000000000000000000000000000000000000000000000007bffffffffffffffffffffffffffffffffffffffffffffffffffffffff19166020820180517bffffffffffffffffffffffffffffffffffffffffffffffffffffffff8381831617835250505050613179565b505050565b60008151905060006a636f6e736f6c652e6c6f679050602083016000808483855afa5050505050565b505050565b60006131c88473ffffffffffffffffffffffffffffffffffffffff16613399565b15613331578373ffffffffffffffffffffffffffffffffffffffff1663150b7a026131f1612646565b8786866040518563ffffffff1660e01b815260040161321394939291906140cf565b602060405180830381600087803b15801561322d57600080fd5b505af192505050801561325e57506040513d601f19601f8201168201806040525081019061325b9190613915565b60015b6132e1573d806000811461328e576040519150601f19603f3d011682016040523d82523d6000602084013e613293565b606091505b506000815114156132d9576040517f08c379a00000000000000000000000000000000000000000000000000000000081526004016132d0906143be565b60405180910390fd5b805181602001fd5b63150b7a0260e01b7bffffffffffffffffffffffffffffffffffffffffffffffffffffffff1916817bffffffffffffffffffffffffffffffffffffffffffffffffffffffff191614915050613336565b600190505b949350505050565b61334883836133ac565b61335560008484846131a7565b613394576040517f08c379a000000000000000000000000000000000000000000000000000000000815260040161338b906143be565b60405180910390fd5b505050565b600080823b905060008111915050919050565b600073ffffffffffffffffffffffffffffffffffffffff168273ffffffffffffffffffffffffffffffffffffffff16141561341c576040517f08c379a0000000000000000000000000000000000000000000000000000000008152600401613413906144de565b60405180910390fd5b613425816125da565b15613465576040517f08c379a000000000000000000000000000000000000000000000000000000000815260040161345c906143de565b60405180910390fd5b613471600083836131a2565b6001600360008473ffffffffffffffffffffffffffffffffffffffff1673ffffffffffffffffffffffffffffffffffffffff16815260200190815260200160002060008282546134c19190614741565b92505081905550816002600083815260200190815260200160002060006101000a81548173ffffffffffffffffffffffffffffffffffffffff021916908373ffffffffffffffffffffffffffffffffffffffff160217905550808273ffffffffffffffffffffffffffffffffffffffff16600073ffffffffffffffffffffffffffffffffffffffff167fddf252ad1be2c89b69c2b068fc378daa952ba7f163c4a11628f55a4df523b3ef60405160405180910390a45050565b6040518060800160405280606081526020016060815260200160008152602001600081525090565b6040518060a0016040528060008152602001606081526020016060815260200160008152602001600081525090565b8280546135dd9061490c565b90600052602060002090601f0160209004810192826135ff5760008555613646565b82601f1061361857805160ff1916838001178555613646565b82800160010185558215613646579182015b8281111561364557825182559160200191906001019061362a565b5b5090506136539190613657565b5090565b5b80821115613670576000816000905550600101613658565b5090565b600061368761368284614683565b61465e565b90508281526020810184848401111561369f57600080fd5b6136aa8482856148ca565b509392505050565b6000813590506136c181615076565b92915050565b6000813590506136d68161508d565b92915050565b6000813590506136eb816150a4565b92915050565b600081519050613700816150a4565b92915050565b600082601f83011261371757600080fd5b8135613727848260208601613674565b91505092915050565b60008135905061373f816150bb565b92915050565b60006020828403121561375757600080fd5b6000613765848285016136b2565b91505092915050565b6000806040838503121561378157600080fd5b600061378f858286016136b2565b92505060206137a0858286016136b2565b9150509250929050565b6000806000606084860312156137bf57600080fd5b60006137cd868287016136b2565b93505060206137de868287016136b2565b92505060406137ef86828701613730565b9150509250925092565b6000806000806080858703121561380f57600080fd5b600061381d878288016136b2565b945050602061382e878288016136b2565b935050604061383f87828801613730565b925050606085013567ffffffffffffffff81111561385c57600080fd5b61386887828801613706565b91505092959194509250565b6000806040838503121561388757600080fd5b6000613895858286016136b2565b92505060206138a6858286016136c7565b9150509250929050565b600080604083850312156138c357600080fd5b60006138d1858286016136b2565b92505060206138e285828601613730565b9150509250929050565b6000602082840312156138fe57600080fd5b600061390c848285016136dc565b91505092915050565b60006020828403121561392757600080fd5b6000613935848285016136f1565b91505092915050565b60006020828403121561395057600080fd5b600061395e84828501613730565b91505092915050565b60008060006060848603121561397c57600080fd5b600061398a86828701613730565b935050602061399b86828701613730565b92505060406139ac86828701613730565b9150509250925092565b60006139c28383613ea5565b905092915050565b6139d381614856565b82525050565b60006139e4826146c4565b6139ee81856146f2565b935083602082028501613a00856146b4565b8060005b85811015613a3c5784840389528151613a1d85826139b6565b9450613a28836146e5565b925060208a01995050600181019050613a04565b50829750879550505050505092915050565b613a5781614868565b82525050565b6000613a68826146cf565b613a728185614703565b9350613a828185602086016148d9565b613a8b81614aa5565b840191505092915050565b6000613aa1826146da565b613aab8185614714565b9350613abb8185602086016148d9565b613ac481614aa5565b840191505092915050565b6000613ada826146da565b613ae48185614725565b9350613af48185602086016148d9565b613afd81614aa5565b840191505092915050565b6000613b13826146da565b613b1d8185614736565b9350613b2d8185602086016148d9565b80840191505092915050565b6000613b46600b83614736565b9150613b5182614ab6565b600b82019050919050565b6000613b69603283614725565b9150613b7482614adf565b604082019050919050565b6000613b8c601c83614725565b9150613b9782614b2e565b602082019050919050565b6000613baf600e83614736565b9150613bba82614b57565b600e82019050919050565b6000613bd2602483614725565b9150613bdd82614b80565b604082019050919050565b6000613bf5601983614725565b9150613c0082614bcf565b602082019050919050565b6000613c18602483614725565b9150613c2382614bf8565b604082019050919050565b6000613c3b602c83614725565b9150613c4682614c47565b604082019050919050565b6000613c5e603883614736565b9150613c6982614c96565b603882019050919050565b6000613c81606183614736565b9150613c8c82614ce5565b606182019050919050565b6000613ca4603883614725565b9150613caf82614d80565b604082019050919050565b6000613cc7602a83614725565b9150613cd282614dcf565b604082019050919050565b6000613cea602983614725565b9150613cf582614e1e565b604082019050919050565b6000613d0d600483614736565b9150613d1882614e6d565b600482019050919050565b6000613d30602083614725565b9150613d3b82614e96565b602082019050919050565b6000613d53602c83614725565b9150613d5e82614ebf565b604082019050919050565b6000613d76602983614725565b9150613d8182614f0e565b604082019050919050565b6000613d99600a83614736565b9150613da482614f5d565b600a82019050919050565b6000613dbc602083614725565b9150613dc782614f86565b602082019050919050565b6000613ddf602183614725565b9150613dea82614faf565b604082019050919050565b6000613e02601d83614736565b9150613e0d82614ffe565b601d82019050919050565b6000613e25603183614725565b9150613e3082615027565b604082019050919050565b60006080830160008301518482036000860152613e588282613a96565b91505060208301518482036020860152613e728282613a96565b9150506040830151613e876040860182613f9f565b506060830151613e9a6060860182613f9f565b508091505092915050565b600060a083016000830151613ebd6000860182613f9f565b5060208301518482036020860152613ed58282613a96565b91505060408301518482036040860152613eef8282613a96565b9150506060830151613f046060860182613f9f565b506080830151613f176080860182613f9f565b508091505092915050565b600060a083016000830151613f3a6000860182613f9f565b5060208301518482036020860152613f528282613a96565b91505060408301518482036040860152613f6c8282613a96565b9150506060830151613f816060860182613f9f565b506080830151613f946080860182613f9f565b508091505092915050565b613fa8816148c0565b82525050565b613fb7816148c0565b82525050565b6000613fc98284613b08565b915081905092915050565b6000613fe08286613b08565b9150613fec8285613b08565b9150613ff88284613b08565b9150819050949350505050565b600061401082613d8c565b915061401c8288613b08565b915061402782613b39565b91506140338287613b08565b915061403e82613c74565b915061404a8286613b08565b915061405582613c51565b91506140618285613b08565b915061406c82613ba2565b91506140788284613b08565b915061408382613d00565b91508190509695505050505050565b600061409d82613df5565b91506140a98284613b08565b915081905092915050565b60006020820190506140c960008301846139ca565b92915050565b60006080820190506140e460008301876139ca565b6140f160208301866139ca565b6140fe6040830185613fae565b81810360608301526141108184613a5d565b905095945050505050565b600060608201905061413060008301866139ca565b61413d6020830185613fae565b61414a6040830184613fae565b949350505050565b600060c08201905061416760008301896139ca565b6141746020830188613fae565b6141816040830187613fae565b61418e6060830186613fae565b61419b6080830185613fae565b6141a860a0830184613fae565b979650505050505050565b600060208201905081810360008301526141cd81846139d9565b905092915050565b60006020820190506141ea6000830184613a4e565b92915050565b6000602082019050818103600083015261420a8184613acf565b905092915050565b6000606082019050818103600083015261422c8186613acf565b905081810360208301526142408185613acf565b905081810360408301526142548184613acf565b9050949350505050565b600060608201905081810360008301526142788186613acf565b9050818103602083015261428c8185613acf565b905061429b6040830184613fae565b949350505050565b600060808201905081810360008301526142bd8187613acf565b905081810360208301526142d18186613acf565b90506142e06040830185613fae565b81810360608301526142f28184613acf565b905095945050505050565b600060808201905081810360008301526143178187613acf565b9050818103602083015261432b8186613acf565b905061433a6040830185613fae565b6143476060830184613fae565b95945050505050565b6000604082019050818103600083015261436a8185613acf565b90506143796020830184613fae565b9392505050565b6000606082019050818103600083015261439a8186613acf565b90506143a96020830185613fae565b6143b66040830184613fae565b949350505050565b600060208201905081810360008301526143d781613b5c565b9050919050565b600060208201905081810360008301526143f781613b7f565b9050919050565b6000602082019050818103600083015261441781613bc5565b9050919050565b6000602082019050818103600083015261443781613be8565b9050919050565b6000602082019050818103600083015261445781613c0b565b9050919050565b6000602082019050818103600083015261447781613c2e565b9050919050565b6000602082019050818103600083015261449781613c97565b9050919050565b600060208201905081810360008301526144b781613cba565b9050919050565b600060208201905081810360008301526144d781613cdd565b9050919050565b600060208201905081810360008301526144f781613d23565b9050919050565b6000602082019050818103600083015261451781613d46565b9050919050565b6000602082019050818103600083015261453781613d69565b9050919050565b6000602082019050818103600083015261455781613daf565b9050919050565b6000602082019050818103600083015261457781613dd2565b9050919050565b6000602082019050818103600083015261459781613e18565b9050919050565b600060208201905081810360008301526145b88184613e3b565b905092915050565b600060208201905081810360008301526145da8184613f22565b905092915050565b60006020820190506145f76000830184613fae565b92915050565b600060a0820190506146126000830188613fae565b81810360208301526146248187613acf565b905081810360408301526146388186613acf565b90506146476060830185613fae565b6146546080830184613fae565b9695505050505050565b6000614668614679565b9050614674828261493e565b919050565b6000604051905090565b600067ffffffffffffffff82111561469e5761469d614a76565b5b6146a782614aa5565b9050602081019050919050565b6000819050602082019050919050565b600081519050919050565b600081519050919050565b600081519050919050565b6000602082019050919050565b600082825260208201905092915050565b600082825260208201905092915050565b600082825260208201905092915050565b600082825260208201905092915050565b600081905092915050565b600061474c826148c0565b9150614757836148c0565b9250827fffffffffffffffffffffffffffffffffffffffffffffffffffffffffffffffff0382111561478c5761478b6149e9565b5b828201905092915050565b60006147a2826148c0565b91506147ad836148c0565b9250826147bd576147bc614a18565b5b828204905092915050565b60006147d3826148c0565b91506147de836148c0565b9250817fffffffffffffffffffffffffffffffffffffffffffffffffffffffffffffffff0483118215151615614817576148166149e9565b5b828202905092915050565b600061482d826148c0565b9150614838836148c0565b92508282101561484b5761484a6149e9565b5b828203905092915050565b6000614861826148a0565b9050919050565b60008115159050919050565b60007fffffffff0000000000000000000000000000000000000000000000000000000082169050919050565b600073ffffffffffffffffffffffffffffffffffffffff82169050919050565b6000819050919050565b82818337600083830152505050565b60005b838110156148f75780820151818401526020810190506148dc565b83811115614906576000848401525b50505050565b6000600282049050600182168061492457607f821691505b6020821081141561493857614937614a47565b5b50919050565b61494782614aa5565b810181811067ffffffffffffffff8211171561496657614965614a76565b5b80604052505050565b600061497a826148c0565b91507fffffffffffffffffffffffffffffffffffffffffffffffffffffffffffffffff8214156149ad576149ac6149e9565b5b600182019050919050565b60006149c3826148c0565b91506149ce836148c0565b9250826149de576149dd614a18565b5b828206905092915050565b7f4e487b7100000000000000000000000000000000000000000000000000000000600052601160045260246000fd5b7f4e487b7100000000000000000000000000000000000000000000000000000000600052601260045260246000fd5b7f4e487b7100000000000000000000000000000000000000000000000000000000600052602260045260246000fd5b7f4e487b7100000000000000000000000000000000000000000000000000000000600052604160045260246000fd5b6000601f19601f8301169050919050565b7f202d2d204e465420233a20000000000000000000000000000000000000000000600082015250565b7f4552433732313a207472616e7366657220746f206e6f6e20455243373231526560008201527f63656976657220696d706c656d656e7465720000000000000000000000000000602082015250565b7f4552433732313a20746f6b656e20616c7265616479206d696e74656400000000600082015250565b7f2c20226d61785f76616c7565223a000000000000000000000000000000000000600082015250565b7f4552433732313a207472616e7366657220746f20746865207a65726f2061646460008201527f7265737300000000000000000000000000000000000000000000000000000000602082015250565b7f4552433732313a20617070726f766520746f2063616c6c657200000000000000600082015250565b7f7468652062696720626f737320646f65736e277420686176652074686174206d60008201527f7563682100000000000000000000000000000000000000000000000000000000602082015250565b7f4552433732313a206f70657261746f7220717565727920666f72206e6f6e657860008201527f697374656e7420746f6b656e0000000000000000000000000000000000000000602082015250565b7f222c202261747472696275746573223a205b207b202274726169745f7479706560008201527f223a202242616e6b726f6c6c222c202276616c7565223a200000000000000000602082015250565b7f222c20226465736372697074696f6e223a20225468697320697320616e204e4660008201527f542074686174206c6574732070656f706c6520706c617920696e20746865206760208201527f616d6520526f7368616d626f21222c2022696d616765223a2022697066733a2f60408201527f2f00000000000000000000000000000000000000000000000000000000000000606082015250565b7f4552433732313a20617070726f76652063616c6c6572206973206e6f74206f7760008201527f6e6572206e6f7220617070726f76656420666f7220616c6c0000000000000000602082015250565b7f4552433732313a2062616c616e636520717565727920666f7220746865207a6560008201527f726f206164647265737300000000000000000000000000000000000000000000602082015250565b7f4552433732313a206f776e657220717565727920666f72206e6f6e657869737460008201527f656e7420746f6b656e0000000000000000000000000000000000000000000000602082015250565b7f7d205d7d00000000000000000000000000000000000000000000000000000000600082015250565b7f4552433732313a206d696e7420746f20746865207a65726f2061646472657373600082015250565b7f4552433732313a20617070726f76656420717565727920666f72206e6f6e657860008201527f697374656e7420746f6b656e0000000000000000000000000000000000000000602082015250565b7f4552433732313a207472616e73666572206f6620746f6b656e2074686174206960008201527f73206e6f74206f776e0000000000000000000000000000000000000000000000602082015250565b7f7b226e616d65223a202200000000000000000000000000000000000000000000600082015250565b7f796f752063616e2774206265742074686174206d7563682c20636f77626f7921600082015250565b7f4552433732313a20617070726f76616c20746f2063757272656e74206f776e6560008201527f7200000000000000000000000000000000000000000000000000000000000000602082015250565b7f646174613a6170706c69636174696f6e2f6a736f6e3b6261736536342c000000600082015250565b7f4552433732313a207472616e736665722063616c6c6572206973206e6f74206f60008201527f776e6572206e6f7220617070726f766564000000000000000000000000000000602082015250565b61507f81614856565b811461508a57600080fd5b50565b61509681614868565b81146150a157600080fd5b50565b6150ad81614874565b81146150b857600080fd5b50565b6150c4816148c0565b81146150cf57600080fd5b5056fe4d696e746564204e465420746f6b656e496420257320616e6420636861726163746572496e6465782025734142434445464748494a4b4c4d4e4f505152535455565758595a6162636465666768696a6b6c6d6e6f707172737475767778797a303132333435363738392b2fa2646970667358221220cab8bb7105e61d7e7418a0bf22423ff8d5f77b340dfdff0d362bb30644c5db1164736f6c63430008040033446f6e6520696e697469616c697a696e6720257320772f2062616e6b726f6c6c2025732c20696d67202573",
  "linkReferences": {},
  "deployedLinkReferences": {}
}