{
  "_format": "hh-sol-artifact-1",
  "contractName": "Roshambo",
  "sourceName": "contracts/Roshambo.sol",
  "abi": [
    {
      "inputs": [
        {
          "internalType": "string[]",
          "name": "characterNames",
          "type": "string[]"
        },
        {
          "internalType": "string[]",
          "name": "characterImageURIs",
          "type": "string[]"
        },
        {
          "internalType": "uint256[]",
          "name": "characterBankroll",
          "type": "uint256[]"
        },
        {
          "internalType": "string",
          "name": "bossName",
          "type": "string"
        },
        {
          "internalType": "string",
          "name": "bossImageURI",
          "type": "string"
        },
        {
          "internalType": "uint256",
          "name": "bossBankroll",
          "type": "uint256"
        }
      ],
      "stateMutability": "nonpayable",
      "type": "constructor"
    },
    {
      "anonymous": false,
      "inputs": [
        {
          "indexed": true,
          "internalType": "address",
          "name": "owner",
          "type": "address"
        },
        {
          "indexed": true,
          "internalType": "address",
          "name": "approved",
          "type": "address"
        },
        {
          "indexed": true,
          "internalType": "uint256",
          "name": "tokenId",
          "type": "uint256"
        }
      ],
      "name": "Approval",
      "type": "event"
    },
    {
      "anonymous": false,
      "inputs": [
        {
          "indexed": true,
          "internalType": "address",
          "name": "owner",
          "type": "address"
        },
        {
          "indexed": true,
          "internalType": "address",
          "name": "operator",
          "type": "address"
        },
        {
          "indexed": false,
          "internalType": "bool",
          "name": "approved",
          "type": "bool"
        }
      ],
      "name": "ApprovalForAll",
      "type": "event"
    },
    {
      "anonymous": false,
      "inputs": [
        {
          "indexed": false,
          "internalType": "address",
          "name": "sender",
          "type": "address"
        },
        {
          "indexed": false,
          "internalType": "uint256",
          "name": "tokenId",
          "type": "uint256"
        },
        {
          "indexed": false,
          "internalType": "uint256",
          "name": "characterIndex",
          "type": "uint256"
        }
      ],
      "name": "CharacterNFTMinted",
      "type": "event"
    },
    {
      "anonymous": false,
      "inputs": [
        {
          "indexed": true,
          "internalType": "address",
          "name": "from",
          "type": "address"
        },
        {
          "indexed": true,
          "internalType": "address",
          "name": "to",
          "type": "address"
        },
        {
          "indexed": true,
          "internalType": "uint256",
          "name": "tokenId",
          "type": "uint256"
        }
      ],
      "name": "Transfer",
      "type": "event"
    },
    {
      "anonymous": false,
      "inputs": [
        {
          "indexed": false,
          "internalType": "address",
          "name": "sender",
          "type": "address"
        },
        {
          "indexed": false,
          "internalType": "uint256",
          "name": "tokenId",
          "type": "uint256"
        },
        {
          "indexed": false,
          "internalType": "uint256",
          "name": "newBossBankroll",
          "type": "uint256"
        },
        {
          "indexed": false,
          "internalType": "uint256",
          "name": "newPlayerBankroll",
          "type": "uint256"
        },
        {
          "indexed": false,
          "internalType": "uint256",
          "name": "bossPlayed",
          "type": "uint256"
        },
        {
          "indexed": false,
          "internalType": "uint256",
          "name": "playerPlayed",
          "type": "uint256"
        }
      ],
      "name": "TurnComplete",
      "type": "event"
    },
    {
      "inputs": [
        {
          "internalType": "address",
          "name": "to",
          "type": "address"
        },
        {
          "internalType": "uint256",
          "name": "tokenId",
          "type": "uint256"
        }
      ],
      "name": "approve",
      "outputs": [],
      "stateMutability": "nonpayable",
      "type": "function"
    },
    {
      "inputs": [
        {
          "internalType": "address",
          "name": "owner",
          "type": "address"
        }
      ],
      "name": "balanceOf",
      "outputs": [
        {
          "internalType": "uint256",
          "name": "",
          "type": "uint256"
        }
      ],
      "stateMutability": "view",
      "type": "function"
    },
    {
      "inputs": [],
      "name": "bigBoss",
      "outputs": [
        {
          "internalType": "string",
          "name": "name",
          "type": "string"
        },
        {
          "internalType": "string",
          "name": "imageURI",
          "type": "string"
        },
        {
          "internalType": "uint256",
          "name": "bankroll",
          "type": "uint256"
        },
        {
          "internalType": "uint256",
          "name": "maxBankroll",
          "type": "uint256"
        }
      ],
      "stateMutability": "view",
      "type": "function"
    },
    {
      "inputs": [],
      "name": "checkIfUserHasNFT",
      "outputs": [
        {
          "components": [
            {
              "internalType": "uint256",
              "name": "characterIndex",
              "type": "uint256"
            },
            {
              "internalType": "string",
              "name": "name",
              "type": "string"
            },
            {
              "internalType": "string",
              "name": "imageURI",
              "type": "string"
            },
            {
              "internalType": "uint256",
              "name": "bankroll",
              "type": "uint256"
            },
            {
              "internalType": "uint256",
              "name": "maxBankroll",
              "type": "uint256"
            }
          ],
          "internalType": "struct Roshambo.CharacterAttributes",
          "name": "",
          "type": "tuple"
        }
      ],
      "stateMutability": "view",
      "type": "function"
    },
    {
      "inputs": [],
      "name": "getAllDefaultCharacters",
      "outputs": [
        {
          "components": [
            {
              "internalType": "uint256",
              "name": "characterIndex",
              "type": "uint256"
            },
            {
              "internalType": "string",
              "name": "name",
              "type": "string"
            },
            {
              "internalType": "string",
              "name": "imageURI",
              "type": "string"
            },
            {
              "internalType": "uint256",
              "name": "bankroll",
              "type": "uint256"
            },
            {
              "internalType": "uint256",
              "name": "maxBankroll",
              "type": "uint256"
            }
          ],
          "internalType": "struct Roshambo.CharacterAttributes[]",
          "name": "",
          "type": "tuple[]"
        }
      ],
      "stateMutability": "view",
      "type": "function"
    },
    {
      "inputs": [
        {
          "internalType": "uint256",
          "name": "tokenId",
          "type": "uint256"
        }
      ],
      "name": "getApproved",
      "outputs": [
        {
          "internalType": "address",
          "name": "",
          "type": "address"
        }
      ],
      "stateMutability": "view",
      "type": "function"
    },
    {
      "inputs": [],
      "name": "getBigBoss",
      "outputs": [
        {
          "components": [
            {
              "internalType": "string",
              "name": "name",
              "type": "string"
            },
            {
              "internalType": "string",
              "name": "imageURI",
              "type": "string"
            },
            {
              "internalType": "uint256",
              "name": "bankroll",
              "type": "uint256"
            },
            {
              "internalType": "uint256",
              "name": "maxBankroll",
              "type": "uint256"
            }
          ],
          "internalType": "struct Roshambo.BigBoss",
          "name": "",
          "type": "tuple"
        }
      ],
      "stateMutability": "view",
      "type": "function"
    },
    {
      "inputs": [
        {
          "internalType": "address",
          "name": "owner",
          "type": "address"
        },
        {
          "internalType": "address",
          "name": "operator",
          "type": "address"
        }
      ],
      "name": "isApprovedForAll",
      "outputs": [
        {
          "internalType": "bool",
          "name": "",
          "type": "bool"
        }
      ],
      "stateMutability": "view",
      "type": "function"
    },
    {
      "inputs": [
        {
          "internalType": "uint256",
          "name": "_characterIndex",
          "type": "uint256"
        }
      ],
      "name": "mintCharacterNFT",
      "outputs": [],
      "stateMutability": "nonpayable",
      "type": "function"
    },
    {
      "inputs": [],
      "name": "name",
      "outputs": [
        {
          "internalType": "string",
          "name": "",
          "type": "string"
        }
      ],
      "stateMutability": "view",
      "type": "function"
    },
    {
      "inputs": [
        {
          "internalType": "uint256",
          "name": "",
          "type": "uint256"
        }
      ],
      "name": "nftHolderAttributes",
      "outputs": [
        {
          "internalType": "uint256",
          "name": "characterIndex",
          "type": "uint256"
        },
        {
          "internalType": "string",
          "name": "name",
          "type": "string"
        },
        {
          "internalType": "string",
          "name": "imageURI",
          "type": "string"
        },
        {
          "internalType": "uint256",
          "name": "bankroll",
          "type": "uint256"
        },
        {
          "internalType": "uint256",
          "name": "maxBankroll",
          "type": "uint256"
        }
      ],
      "stateMutability": "view",
      "type": "function"
    },
    {
      "inputs": [
        {
          "internalType": "address",
          "name": "",
          "type": "address"
        }
      ],
      "name": "nftHolders",
      "outputs": [
        {
          "internalType": "uint256",
          "name": "",
          "type": "uint256"
        }
      ],
      "stateMutability": "view",
      "type": "function"
    },
    {
      "inputs": [],
      "name": "numTokens",
      "outputs": [
        {
          "internalType": "uint256",
          "name": "count",
          "type": "uint256"
        }
      ],
      "stateMutability": "view",
      "type": "function"
    },
    {
      "inputs": [
        {
          "internalType": "uint256",
          "name": "tokenId",
          "type": "uint256"
        }
      ],
      "name": "ownerOf",
      "outputs": [
        {
          "internalType": "address",
          "name": "",
          "type": "address"
        }
      ],
      "stateMutability": "view",
      "type": "function"
    },
    {
      "inputs": [
        {
          "internalType": "uint256",
          "name": "value",
          "type": "uint256"
        },
        {
          "internalType": "uint256",
          "name": "bet",
          "type": "uint256"
        },
        {
          "internalType": "uint256",
          "name": "seed",
          "type": "uint256"
        }
      ],
      "name": "play",
      "outputs": [],
      "stateMutability": "nonpayable",
      "type": "function"
    },
    {
      "inputs": [
        {
          "internalType": "address",
          "name": "from",
          "type": "address"
        },
        {
          "internalType": "address",
          "name": "to",
          "type": "address"
        },
        {
          "internalType": "uint256",
          "name": "tokenId",
          "type": "uint256"
        }
      ],
      "name": "safeTransferFrom",
      "outputs": [],
      "stateMutability": "nonpayable",
      "type": "function"
    },
    {
      "inputs": [
        {
          "internalType": "address",
          "name": "from",
          "type": "address"
        },
        {
          "internalType": "address",
          "name": "to",
          "type": "address"
        },
        {
          "internalType": "uint256",
          "name": "tokenId",
          "type": "uint256"
        },
        {
          "internalType": "bytes",
          "name": "_data",
          "type": "bytes"
        }
      ],
      "name": "safeTransferFrom",
      "outputs": [],
      "stateMutability": "nonpayable",
      "type": "function"
    },
    {
      "inputs": [
        {
          "internalType": "address",
          "name": "operator",
          "type": "address"
        },
        {
          "internalType": "bool",
          "name": "approved",
          "type": "bool"
        }
      ],
      "name": "setApprovalForAll",
      "outputs": [],
      "stateMutability": "nonpayable",
      "type": "function"
    },
    {
      "inputs": [
        {
          "internalType": "bytes4",
          "name": "interfaceId",
          "type": "bytes4"
        }
      ],
      "name": "supportsInterface",
      "outputs": [
        {
          "internalType": "bool",
          "name": "",
          "type": "bool"
        }
      ],
      "stateMutability": "view",
      "type": "function"
    },
    {
      "inputs": [],
      "name": "symbol",
      "outputs": [
        {
          "internalType": "string",
          "name": "",
          "type": "string"
        }
      ],
      "stateMutability": "view",
      "type": "function"
    },
    {
      "inputs": [],
      "name": "tokenID",
      "outputs": [
        {
          "internalType": "uint256",
          "name": "",
          "type": "uint256"
        }
      ],
      "stateMutability": "view",
      "type": "function"
    },
    {
      "inputs": [
        {
          "internalType": "uint256",
          "name": "_tokenId",
          "type": "uint256"
        }
      ],
      "name": "tokenURI",
      "outputs": [
        {
          "internalType": "string",
          "name": "",
          "type": "string"
        }
      ],
      "stateMutability": "view",
      "type": "function"
    },
    {
      "inputs": [
        {
          "internalType": "address",
          "name": "from",
          "type": "address"
        },
        {
          "internalType": "address",
          "name": "to",
          "type": "address"
        },
        {
          "internalType": "uint256",
          "name": "tokenId",
          "type": "uint256"
        }
      ],
      "name": "transferFrom",
      "outputs": [],
      "stateMutability": "nonpayable",
      "type": "function"
    }
  ],
  "bytecode": "0x60806040523480156200001157600080fd5b5060405162005f7038038062005f708339818101604052810190620000379190620008b7565b6040518060400160405280601081526020017f526f7368616d626f204c6567656e6473000000000000000000000000000000008152506040518060400160405280600481526020017f524f5348000000000000000000000000000000000000000000000000000000008152508160009080519060200190620000bb9291906200061f565b508060019080519060200190620000d49291906200061f565b50505060005b86518110156200049857600b6040518060a0016040528083815260200189848151811062000131577f4e487b7100000000000000000000000000000000000000000000000000000000600052603260045260246000fd5b6020026020010151815260200188848151811062000178577f4e487b7100000000000000000000000000000000000000000000000000000000600052603260045260246000fd5b60200260200101518152602001878481518110620001bf577f4e487b7100000000000000000000000000000000000000000000000000000000600052603260045260246000fd5b6020026020010151815260200187848151811062000206577f4e487b7100000000000000000000000000000000000000000000000000000000600052603260045260246000fd5b60200260200101518152509080600181540180825580915050600190039060005260206000209060050201600090919091909150600082015181600001556020820151816001019080519060200190620002629291906200061f565b506040820151816002019080519060200190620002819291906200061f565b50606082015181600301556080820151816004015550506000600b8281548110620002d5577f4e487b7100000000000000000000000000000000000000000000000000000000600052603260045260246000fd5b90600052602060002090600502016040518060a0016040529081600082015481526020016001820180546200030a9062000bf4565b80601f0160208091040260200160405190810160405280929190818152602001828054620003389062000bf4565b8015620003895780601f106200035d5761010080835404028352916020019162000389565b820191906000526020600020905b8154815290600101906020018083116200036b57829003601f168201915b50505050508152602001600282018054620003a49062000bf4565b80601f0160208091040260200160405190810160405280929190818152602001828054620003d29062000bf4565b8015620004235780601f10620003f75761010080835404028352916020019162000423565b820191906000526020600020905b8154815290600101906020018083116200040557829003601f168201915b50505050508152602001600382015481526020016004820154815250509050620004806040518060600160405280602b815260200162005f45602b91398260200151836060015184604001516200053460201b620025621760201c565b5060018162000490919062000b57565b9050620000da565b50620004b0600a620005e060201b620026041760201c565b60405180608001604052808481526020018381526020018281526020018281525060066000820151816000019080519060200190620004f19291906200061f565b506020820151816001019080519060200190620005109291906200061f565b50604082015181600201556060820151816003015590505050505050505062000d18565b620005da8484848460405160240162000551949392919062000a1c565b6040516020818303038152906040527f8d142cdd000000000000000000000000000000000000000000000000000000007bffffffffffffffffffffffffffffffffffffffffffffffffffffffff19166020820180517bffffffffffffffffffffffffffffffffffffffffffffffffffffffff8381831617835250505050620005f660201b60201c565b50505050565b6001816000016000828254019250508190555050565b60008151905060006a636f6e736f6c652e6c6f679050602083016000808483855afa5050505050565b8280546200062d9062000bf4565b90600052602060002090601f0160209004810192826200065157600085556200069d565b82601f106200066c57805160ff19168380011785556200069d565b828001600101855582156200069d579182015b828111156200069c5782518255916020019190600101906200067f565b5b509050620006ac9190620006b0565b5090565b5b80821115620006cb576000816000905550600101620006b1565b5090565b6000620006e6620006e08462000aa7565b62000a7e565b905080838252602082019050828560208602820111156200070657600080fd5b60005b858110156200075557815167ffffffffffffffff8111156200072a57600080fd5b80860162000739898262000873565b8552602085019450602084019350505060018101905062000709565b5050509392505050565b600062000776620007708462000ad6565b62000a7e565b905080838252602082019050828560208602820111156200079657600080fd5b60005b85811015620007ca5781620007af8882620008a0565b84526020840193506020830192505060018101905062000799565b5050509392505050565b6000620007eb620007e58462000b05565b62000a7e565b9050828152602081018484840111156200080457600080fd5b6200081184828562000bbe565b509392505050565b600082601f8301126200082b57600080fd5b81516200083d848260208601620006cf565b91505092915050565b600082601f8301126200085857600080fd5b81516200086a8482602086016200075f565b91505092915050565b600082601f8301126200088557600080fd5b815162000897848260208601620007d4565b91505092915050565b600081519050620008b18162000cfe565b92915050565b60008060008060008060c08789031215620008d157600080fd5b600087015167ffffffffffffffff811115620008ec57600080fd5b620008fa89828a0162000819565b965050602087015167ffffffffffffffff8111156200091857600080fd5b6200092689828a0162000819565b955050604087015167ffffffffffffffff8111156200094457600080fd5b6200095289828a0162000846565b945050606087015167ffffffffffffffff8111156200097057600080fd5b6200097e89828a0162000873565b935050608087015167ffffffffffffffff8111156200099c57600080fd5b620009aa89828a0162000873565b92505060a0620009bd89828a01620008a0565b9150509295509295509295565b6000620009d78262000b3b565b620009e3818562000b46565b9350620009f581856020860162000bbe565b62000a008162000ced565b840191505092915050565b62000a168162000bb4565b82525050565b6000608082019050818103600083015262000a388187620009ca565b9050818103602083015262000a4e8186620009ca565b905062000a5f604083018562000a0b565b818103606083015262000a738184620009ca565b905095945050505050565b600062000a8a62000a9d565b905062000a98828262000c2a565b919050565b6000604051905090565b600067ffffffffffffffff82111562000ac55762000ac462000cbe565b5b602082029050602081019050919050565b600067ffffffffffffffff82111562000af45762000af362000cbe565b5b602082029050602081019050919050565b600067ffffffffffffffff82111562000b235762000b2262000cbe565b5b62000b2e8262000ced565b9050602081019050919050565b600081519050919050565b600082825260208201905092915050565b600062000b648262000bb4565b915062000b718362000bb4565b9250827fffffffffffffffffffffffffffffffffffffffffffffffffffffffffffffffff0382111562000ba95762000ba862000c60565b5b828201905092915050565b6000819050919050565b60005b8381101562000bde57808201518184015260208101905062000bc1565b8381111562000bee576000848401525b50505050565b6000600282049050600182168062000c0d57607f821691505b6020821081141562000c245762000c2362000c8f565b5b50919050565b62000c358262000ced565b810181811067ffffffffffffffff8211171562000c575762000c5662000cbe565b5b80604052505050565b7f4e487b7100000000000000000000000000000000000000000000000000000000600052601160045260246000fd5b7f4e487b7100000000000000000000000000000000000000000000000000000000600052602260045260246000fd5b7f4e487b7100000000000000000000000000000000000000000000000000000000600052604160045260246000fd5b6000601f19601f8301169050919050565b62000d098162000bb4565b811462000d1557600080fd5b50565b61521d8062000d286000396000f3fe608060405234801561001057600080fd5b506004361061014d5760003560e01c806395d89b41116100c3578063b88d4fde1161007c578063b88d4fde146103b9578063b953084e146103d5578063c87b56dd146103f3578063c8cf27f414610423578063e985e9c514610441578063f8b81ef7146104715761014d565b806395d89b41146102f057806398da4c951461030e578063a22cb46514610342578063a5c42ef11461035e578063a9c326791461037c578063ab2e5a1f1461039d5761014d565b806323b872dd1161011557806323b872dd1461020a57806342842e0e146102265780636352211e1461024257806370a08231146102725780637df124a1146102a25780638e499bcf146102d25761014d565b806301ffc9a7146101525780630665f9611461018257806306fdde03146101a0578063081812fc146101be578063095ea7b3146101ee575b600080fd5b61016c60048036038101906101679190613996565b61048d565b604051610179919061427f565b60405180910390f35b61018a61056f565b6040516101979190614648565b60405180910390f35b6101a86106c1565b6040516101b5919061429a565b60405180910390f35b6101d860048036038101906101d391906139e8565b610753565b6040516101e5919061415e565b60405180910390f35b6102086004803603810190610203919061395a565b6107d8565b005b610224600480360381019061021f9190613854565b6108f0565b005b610240600480360381019061023b9190613854565b610950565b005b61025c600480360381019061025791906139e8565b610970565b604051610269919061415e565b60405180910390f35b61028c600480360381019061028791906137ef565b610a22565b604051610299919061468c565b60405180910390f35b6102bc60048036038101906102b791906137ef565b610ada565b6040516102c9919061468c565b60405180910390f35b6102da610af2565b6040516102e7919061468c565b60405180910390f35b6102f8610b03565b604051610305919061429a565b60405180910390f35b610328600480360381019061032391906139e8565b610b95565b6040516103399594939291906146a7565b60405180910390f35b61035c6004803603810190610357919061391e565b610cdb565b005b610366610e5c565b604051610373919061468c565b60405180910390f35b610384610ea3565b60405161039494939291906143a7565b60405180910390f35b6103b760048036038101906103b29190613a11565b610fd1565b005b6103d360048036038101906103ce91906138a3565b611b61565b005b6103dd611bc3565b6040516103ea919061425d565b60405180910390f35b61040d600480360381019061040891906139e8565b611d64565b60405161041a919061429a565b60405180910390f35b61042b611f61565b604051610438919061466a565b60405180910390f35b61045b60048036038101906104569190613818565b61212f565b604051610468919061427f565b60405180910390f35b61048b600480360381019061048691906139e8565b6121c3565b005b60007f80ac58cd000000000000000000000000000000000000000000000000000000007bffffffffffffffffffffffffffffffffffffffffffffffffffffffff1916827bffffffffffffffffffffffffffffffffffffffffffffffffffffffff1916148061055857507f5b5e139f000000000000000000000000000000000000000000000000000000007bffffffffffffffffffffffffffffffffffffffffffffffffffffffff1916827bffffffffffffffffffffffffffffffffffffffffffffffffffffffff1916145b8061056857506105678261261a565b5b9050919050565b610577613624565b6006604051806080016040529081600082018054610594906149b6565b80601f01602080910402602001604051908101604052809291908181526020018280546105c0906149b6565b801561060d5780601f106105e25761010080835404028352916020019161060d565b820191906000526020600020905b8154815290600101906020018083116105f057829003601f168201915b50505050508152602001600182018054610626906149b6565b80601f0160208091040260200160405190810160405280929190818152602001828054610652906149b6565b801561069f5780601f106106745761010080835404028352916020019161069f565b820191906000526020600020905b81548152906001019060200180831161068257829003601f168201915b5050505050815260200160028201548152602001600382015481525050905090565b6060600080546106d0906149b6565b80601f01602080910402602001604051908101604052809291908181526020018280546106fc906149b6565b80156107495780601f1061071e57610100808354040283529160200191610749565b820191906000526020600020905b81548152906001019060200180831161072c57829003601f168201915b5050505050905090565b600061075e82612684565b61079d576040517f08c379a0000000000000000000000000000000000000000000000000000000008152600401610794906145a8565b60405180910390fd5b6004600083815260200190815260200160002060009054906101000a900473ffffffffffffffffffffffffffffffffffffffff169050919050565b60006107e382610970565b90508073ffffffffffffffffffffffffffffffffffffffff168373ffffffffffffffffffffffffffffffffffffffff161415610854576040517f08c379a000000000000000000000000000000000000000000000000000000000815260040161084b90614608565b60405180910390fd5b8073ffffffffffffffffffffffffffffffffffffffff166108736126f0565b73ffffffffffffffffffffffffffffffffffffffff1614806108a257506108a18161089c6126f0565b61212f565b5b6108e1576040517f08c379a00000000000000000000000000000000000000000000000000000000081526004016108d890614528565b60405180910390fd5b6108eb83836126f8565b505050565b6109016108fb6126f0565b826127b1565b610940576040517f08c379a000000000000000000000000000000000000000000000000000000000815260040161093790614628565b60405180910390fd5b61094b83838361288f565b505050565b61096b83838360405180602001604052806000815250611b61565b505050565b6000806002600084815260200190815260200160002060009054906101000a900473ffffffffffffffffffffffffffffffffffffffff169050600073ffffffffffffffffffffffffffffffffffffffff168173ffffffffffffffffffffffffffffffffffffffff161415610a19576040517f08c379a0000000000000000000000000000000000000000000000000000000008152600401610a1090614568565b60405180910390fd5b80915050919050565b60008073ffffffffffffffffffffffffffffffffffffffff168273ffffffffffffffffffffffffffffffffffffffff161415610a93576040517f08c379a0000000000000000000000000000000000000000000000000000000008152600401610a8a90614548565b60405180910390fd5b600360008373ffffffffffffffffffffffffffffffffffffffff1673ffffffffffffffffffffffffffffffffffffffff168152602001908152602001600020549050919050565b600d6020528060005260406000206000915090505481565b6000610afe600a612aeb565b905090565b606060018054610b12906149b6565b80601f0160208091040260200160405190810160405280929190818152602001828054610b3e906149b6565b8015610b8b5780601f10610b6057610100808354040283529160200191610b8b565b820191906000526020600020905b815481529060010190602001808311610b6e57829003601f168201915b5050505050905090565b600c602052806000526040600020600091509050806000015490806001018054610bbe906149b6565b80601f0160208091040260200160405190810160405280929190818152602001828054610bea906149b6565b8015610c375780601f10610c0c57610100808354040283529160200191610c37565b820191906000526020600020905b815481529060010190602001808311610c1a57829003601f168201915b505050505090806002018054610c4c906149b6565b80601f0160208091040260200160405190810160405280929190818152602001828054610c78906149b6565b8015610cc55780601f10610c9a57610100808354040283529160200191610cc5565b820191906000526020600020905b815481529060010190602001808311610ca857829003601f168201915b5050505050908060030154908060040154905085565b610ce36126f0565b73ffffffffffffffffffffffffffffffffffffffff168273ffffffffffffffffffffffffffffffffffffffff161415610d51576040517f08c379a0000000000000000000000000000000000000000000000000000000008152600401610d48906144c8565b60405180910390fd5b8060056000610d5e6126f0565b73ffffffffffffffffffffffffffffffffffffffff1673ffffffffffffffffffffffffffffffffffffffff16815260200190815260200160002060008473ffffffffffffffffffffffffffffffffffffffff1673ffffffffffffffffffffffffffffffffffffffff16815260200190815260200160002060006101000a81548160ff0219169083151502179055508173ffffffffffffffffffffffffffffffffffffffff16610e0b6126f0565b73ffffffffffffffffffffffffffffffffffffffff167f17307eab39ab6107e8899845ad3d59bd9653f200f220920489ca2b5937696c3183604051610e50919061427f565b60405180910390a35050565b6000600d60003373ffffffffffffffffffffffffffffffffffffffff1673ffffffffffffffffffffffffffffffffffffffff16815260200190815260200160002054905090565b6006806000018054610eb4906149b6565b80601f0160208091040260200160405190810160405280929190818152602001828054610ee0906149b6565b8015610f2d5780601f10610f0257610100808354040283529160200191610f2d565b820191906000526020600020905b815481529060010190602001808311610f1057829003601f168201915b505050505090806001018054610f42906149b6565b80601f0160208091040260200160405190810160405280929190818152602001828054610f6e906149b6565b8015610fbb5780601f10610f9057610100808354040283529160200191610fbb565b820191906000526020600020905b815481529060010190602001808311610f9e57829003601f168201915b5050505050908060020154908060030154905084565b6000600d60003373ffffffffffffffffffffffffffffffffffffffff1673ffffffffffffffffffffffffffffffffffffffff1681526020019081526020016000205490506000600c60008381526020019081526020016000206040518060a00160405290816000820154815260200160018201805461104f906149b6565b80601f016020809104026020016040519081016040528092919081815260200182805461107b906149b6565b80156110c85780601f1061109d576101008083540402835291602001916110c8565b820191906000526020600020905b8154815290600101906020018083116110ab57829003601f168201915b505050505081526020016002820180546110e1906149b6565b80601f016020809104026020016040519081016040528092919081815260200182805461110d906149b6565b801561115a5780601f1061112f5761010080835404028352916020019161115a565b820191906000526020600020905b81548152906001019060200180831161113d57829003601f168201915b505050505081526020016003820154815260200160048201548152505090506111c16040518060400160405280601181526020017f5374617274696e67202d2025733a20256400000000000000000000000000000081525082602001518360600151612af9565b6112936040518060400160405280601181526020017f5374617274696e67202d2025733a2025640000000000000000000000000000008152506006600001805461120a906149b6565b80601f0160208091040260200160405190810160405280929190818152602001828054611236906149b6565b80156112835780601f1061125857610100808354040283529160200191611283565b820191906000526020600020905b81548152906001019060200180831161126657829003601f168201915b5050505050600660020154612af9565b80606001518411156112da576040517f08c379a00000000000000000000000000000000000000000000000000000000081526004016112d1906145e8565b60405180910390fd5b600660020154841115611322576040517f08c379a0000000000000000000000000000000000000000000000000000000008152600401611319906144e8565b60405180910390fd5b6000611371611335600660020154612b98565b61133e86612b98565b61134b8560600151612b98565b60405160200161135d9392919061407e565b604051602081830303815290604052612d45565b905060006003826113829190614a62565b90506113c36040518060400160405280600681526020017f72616e643a20000000000000000000000000000000000000000000000000000081525083612d78565b6114026040518060400160405280600881526020017f706c617965643a2000000000000000000000000000000000000000000000000081525082612d78565b600080881461148a576001881461144e576040518060400160405280600881526020017f73636973736f7273000000000000000000000000000000000000000000000000815250611485565b6040518060400160405280600581526020017f70617065720000000000000000000000000000000000000000000000000000008152505b6114c1565b6040518060400160405280600481526020017f726f636b000000000000000000000000000000000000000000000000000000008152505b9050600080831461154b576001831461150f576040518060400160405280600881526020017f73636973736f7273000000000000000000000000000000000000000000000000815250611546565b6040518060400160405280600581526020017f70617065720000000000000000000000000000000000000000000000000000008152505b611582565b6040518060400160405280600481526020017f726f636b000000000000000000000000000000000000000000000000000000008152505b90506115c86040518060400160405280601581526020017f506c6179657220257320706c617965642025732e200000000000000000000000815250866020015184612e14565b6116956040518060400160405280601181526020017f426f737320257320706c6179656420257300000000000000000000000000000081525060066000018054611611906149b6565b80601f016020809104026020016040519081016040528092919081815260200182805461163d906149b6565b801561168a5780601f1061165f5761010080835404028352916020019161168a565b820191906000526020600020905b81548152906001019060200180831161166d57829003601f168201915b505050505083612e14565b888314156116e0576116db6040518060400160405280600481526020017f7075736800000000000000000000000000000000000000000000000000000000815250612eb3565b611934565b6000831480156116f05750600189145b156117435787600c6000888152602001908152602001600020600301600082825461171b91906147eb565b92505081905550876006600201600082825461173791906148cc565b92505081905550611933565b6000831480156117535750600289145b156117a65787600c6000888152602001908152602001600020600301600082825461177e91906148cc565b92505081905550876006600201600082825461179a91906147eb565b92505081905550611932565b6001831480156117b65750600089145b156118095787600c600088815260200190815260200160002060030160008282546117e191906148cc565b9250508190555087600660020160008282546117fd91906147eb565b92505081905550611931565b6001831480156118195750600289145b1561186c5787600c6000888152602001908152602001600020600301600082825461184491906147eb565b92505081905550876006600201600082825461186091906148cc565b92505081905550611930565b60028314801561187c5750600089145b156118cf5787600c600088815260200190815260200160002060030160008282546118a791906147eb565b9250508190555087600660020160008282546118c391906148cc565b9250508190555061192f565b6002831480156118df5750600189145b1561192e5787600c6000888152602001908152602001600020600301600082825461190a91906148cc565b92505081905550876006600201600082825461192691906147eb565b925050819055505b5b5b5b5b5b5b611a286040518060400160405280600f81526020017f456e64696e67202d2025733a2025640000000000000000000000000000000000815250600c6000898152602001908152602001600020600101805461198e906149b6565b80601f01602080910402602001604051908101604052809291908181526020018280546119ba906149b6565b8015611a075780601f106119dc57610100808354040283529160200191611a07565b820191906000526020600020905b8154815290600101906020018083116119ea57829003601f168201915b5050505050600c60008a815260200190815260200160002060030154612af9565b611afa6040518060400160405280600f81526020017f456e64696e67202d2025733a202564000000000000000000000000000000000081525060066000018054611a71906149b6565b80601f0160208091040260200160405190810160405280929190818152602001828054611a9d906149b6565b8015611aea5780601f10611abf57610100808354040283529160200191611aea565b820191906000526020600020905b815481529060010190602001808311611acd57829003601f168201915b5050505050600660020154612af9565b7fca8672846e032615bcc783fbe461671b16e32849c60271f2eaf821c1395769dc3387600660020154600c60008b815260200190815260200160002060030154878e604051611b4e969594939291906141fc565b60405180910390a1505050505050505050565b611b72611b6c6126f0565b836127b1565b611bb1576040517f08c379a0000000000000000000000000000000000000000000000000000000008152600401611ba890614628565b60405180910390fd5b611bbd84848484612f4c565b50505050565b6060600b805480602002602001604051908101604052809291908181526020016000905b82821015611d5b57838290600052602060002090600502016040518060a001604052908160008201548152602001600182018054611c24906149b6565b80601f0160208091040260200160405190810160405280929190818152602001828054611c50906149b6565b8015611c9d5780601f10611c7257610100808354040283529160200191611c9d565b820191906000526020600020905b815481529060010190602001808311611c8057829003601f168201915b50505050508152602001600282018054611cb6906149b6565b80601f0160208091040260200160405190810160405280929190818152602001828054611ce2906149b6565b8015611d2f5780601f10611d0457610100808354040283529160200191611d2f565b820191906000526020600020905b815481529060010190602001808311611d1257829003601f168201915b505050505081526020016003820154815260200160048201548152505081526020019060010190611be7565b50505050905090565b60606000600c60008481526020019081526020016000206040518060a001604052908160008201548152602001600182018054611da0906149b6565b80601f0160208091040260200160405190810160405280929190818152602001828054611dcc906149b6565b8015611e195780601f10611dee57610100808354040283529160200191611e19565b820191906000526020600020905b815481529060010190602001808311611dfc57829003601f168201915b50505050508152602001600282018054611e32906149b6565b80601f0160208091040260200160405190810160405280929190818152602001828054611e5e906149b6565b8015611eab5780601f10611e8057610100808354040283529160200191611eab565b820191906000526020600020905b815481529060010190602001808311611e8e57829003601f168201915b505050505081526020016003820154815260200160048201548152505090506000611ed98260600151612b98565b90506000611eea8360800151612b98565b90506000611f2e8460200151611eff88612b98565b86604001518686604051602001611f1a9594939291906140af565b604051602081830303815290604052612fa8565b9050600081604051602001611f43919061413c565b60405160208183030381529060405290508095505050505050919050565b611f6961364c565b6000600d60003373ffffffffffffffffffffffffffffffffffffffff1673ffffffffffffffffffffffffffffffffffffffff168152602001908152602001600020549050600081111561211e57600c60008281526020019081526020016000206040518060a001604052908160008201548152602001600182018054611fee906149b6565b80601f016020809104026020016040519081016040528092919081815260200182805461201a906149b6565b80156120675780601f1061203c57610100808354040283529160200191612067565b820191906000526020600020905b81548152906001019060200180831161204a57829003601f168201915b50505050508152602001600282018054612080906149b6565b80601f01602080910402602001604051908101604052809291908181526020018280546120ac906149b6565b80156120f95780601f106120ce576101008083540402835291602001916120f9565b820191906000526020600020905b8154815290600101906020018083116120dc57829003601f168201915b505050505081526020016003820154815260200160048201548152505091505061212c565b61212661364c565b80925050505b90565b6000600560008473ffffffffffffffffffffffffffffffffffffffff1673ffffffffffffffffffffffffffffffffffffffff16815260200190815260200160002060008373ffffffffffffffffffffffffffffffffffffffff1673ffffffffffffffffffffffffffffffffffffffff16815260200190815260200160002060009054906101000a900460ff16905092915050565b60006121cf600a612aeb565b90506121db3382613166565b60006040518060a00160405280848152602001600b8581548110612228577f4e487b7100000000000000000000000000000000000000000000000000000000600052603260045260246000fd5b90600052602060002090600502016001018054612244906149b6565b80601f0160208091040260200160405190810160405280929190818152602001828054612270906149b6565b80156122bd5780601f10612292576101008083540402835291602001916122bd565b820191906000526020600020905b8154815290600101906020018083116122a057829003601f168201915b50505050508152602001600b8581548110612301577f4e487b7100000000000000000000000000000000000000000000000000000000600052603260045260246000fd5b9060005260206000209060050201600201805461231d906149b6565b80601f0160208091040260200160405190810160405280929190818152602001828054612349906149b6565b80156123965780601f1061236b57610100808354040283529160200191612396565b820191906000526020600020905b81548152906001019060200180831161237957829003601f168201915b50505050508152602001600b85815481106123da577f4e487b7100000000000000000000000000000000000000000000000000000000600052603260045260246000fd5b9060005260206000209060050201600301548152602001600b858154811061242b577f4e487b7100000000000000000000000000000000000000000000000000000000600052603260045260246000fd5b906000526020600020906005020160030154815250905080600c600084815260200190815260200160002060008201518160000155602082015181600101908051906020019061247c92919061367b565b50604082015181600201908051906020019061249992919061367b565b5060608201518160030155608082015181600401559050506124d46040518060600160405280602b815260200161517d602b91398385613184565b81600d60003373ffffffffffffffffffffffffffffffffffffffff1673ffffffffffffffffffffffffffffffffffffffff16815260200190815260200160002081905550612522600a612604565b7f4bc303fd457a97b4691b9af582ce71868a3d258638c8d4f8c60988a0f0bfb8cd338385604051612555939291906141c5565b60405180910390a1505050565b6125fe8484848460405160240161257c949392919061434d565b6040516020818303038152906040527f8d142cdd000000000000000000000000000000000000000000000000000000007bffffffffffffffffffffffffffffffffffffffffffffffffffffffff19166020820180517bffffffffffffffffffffffffffffffffffffffffffffffffffffffff8381831617835250505050613223565b50505050565b6001816000016000828254019250508190555050565b60007f01ffc9a7000000000000000000000000000000000000000000000000000000007bffffffffffffffffffffffffffffffffffffffffffffffffffffffff1916827bffffffffffffffffffffffffffffffffffffffffffffffffffffffff1916149050919050565b60008073ffffffffffffffffffffffffffffffffffffffff166002600084815260200190815260200160002060009054906101000a900473ffffffffffffffffffffffffffffffffffffffff1673ffffffffffffffffffffffffffffffffffffffff1614159050919050565b600033905090565b816004600083815260200190815260200160002060006101000a81548173ffffffffffffffffffffffffffffffffffffffff021916908373ffffffffffffffffffffffffffffffffffffffff160217905550808273ffffffffffffffffffffffffffffffffffffffff1661276b83610970565b73ffffffffffffffffffffffffffffffffffffffff167f8c5be1e5ebec7d5bd14f71427d1e84f3dd0314c0f7b2291e5b200ac8c7c3b92560405160405180910390a45050565b60006127bc82612684565b6127fb576040517f08c379a00000000000000000000000000000000000000000000000000000000081526004016127f290614508565b60405180910390fd5b600061280683610970565b90508073ffffffffffffffffffffffffffffffffffffffff168473ffffffffffffffffffffffffffffffffffffffff16148061287557508373ffffffffffffffffffffffffffffffffffffffff1661285d84610753565b73ffffffffffffffffffffffffffffffffffffffff16145b806128865750612885818561212f565b5b91505092915050565b8273ffffffffffffffffffffffffffffffffffffffff166128af82610970565b73ffffffffffffffffffffffffffffffffffffffff1614612905576040517f08c379a00000000000000000000000000000000000000000000000000000000081526004016128fc906145c8565b60405180910390fd5b600073ffffffffffffffffffffffffffffffffffffffff168273ffffffffffffffffffffffffffffffffffffffff161415612975576040517f08c379a000000000000000000000000000000000000000000000000000000000815260040161296c906144a8565b60405180910390fd5b61298083838361324c565b61298b6000826126f8565b6001600360008573ffffffffffffffffffffffffffffffffffffffff1673ffffffffffffffffffffffffffffffffffffffff16815260200190815260200160002060008282546129db91906148cc565b925050819055506001600360008473ffffffffffffffffffffffffffffffffffffffff1673ffffffffffffffffffffffffffffffffffffffff1681526020019081526020016000206000828254612a3291906147eb565b92505081905550816002600083815260200190815260200160002060006101000a81548173ffffffffffffffffffffffffffffffffffffffff021916908373ffffffffffffffffffffffffffffffffffffffff160217905550808273ffffffffffffffffffffffffffffffffffffffff168473ffffffffffffffffffffffffffffffffffffffff167fddf252ad1be2c89b69c2b068fc378daa952ba7f163c4a11628f55a4df523b3ef60405160405180910390a4505050565b600081600001549050919050565b612b93838383604051602401612b1193929190614308565b6040516020818303038152906040527ff362ca59000000000000000000000000000000000000000000000000000000007bffffffffffffffffffffffffffffffffffffffffffffffffffffffff19166020820180517bffffffffffffffffffffffffffffffffffffffffffffffffffffffff8381831617835250505050613223565b505050565b60606000821415612be0576040518060400160405280600181526020017f30000000000000000000000000000000000000000000000000000000000000008152509050612d40565b600082905060005b60008214612c12578080612bfb90614a19565b915050600a82612c0b9190614841565b9150612be8565b60008167ffffffffffffffff811115612c54577f4e487b7100000000000000000000000000000000000000000000000000000000600052604160045260246000fd5b6040519080825280601f01601f191660200182016040528015612c865781602001600182028036833780820191505090505b5090505b60008514612d3957600182612c9f91906148cc565b9150600a85612cae9190614a62565b6030612cba91906147eb565b60f81b818381518110612cf6577f4e487b7100000000000000000000000000000000000000000000000000000000600052603260045260246000fd5b60200101907effffffffffffffffffffffffffffffffffffffffffffffffffffffffffffff1916908160001a905350600a85612d329190614841565b9450612c8a565b8093505050505b919050565b600081604051602001612d589190614067565b6040516020818303038152906040528051906020012060001c9050919050565b612e108282604051602401612d8e9291906143fa565b6040516020818303038152906040527f9710a9d0000000000000000000000000000000000000000000000000000000007bffffffffffffffffffffffffffffffffffffffffffffffffffffffff19166020820180517bffffffffffffffffffffffffffffffffffffffffffffffffffffffff8381831617835250505050613223565b5050565b612eae838383604051602401612e2c939291906142bc565b6040516020818303038152906040527f2ced7cef000000000000000000000000000000000000000000000000000000007bffffffffffffffffffffffffffffffffffffffffffffffffffffffff19166020820180517bffffffffffffffffffffffffffffffffffffffffffffffffffffffff8381831617835250505050613223565b505050565b612f4981604051602401612ec7919061429a565b6040516020818303038152906040527f41304fac000000000000000000000000000000000000000000000000000000007bffffffffffffffffffffffffffffffffffffffffffffffffffffffff19166020820180517bffffffffffffffffffffffffffffffffffffffffffffffffffffffff8381831617835250505050613223565b50565b612f5784848461288f565b612f6384848484613251565b612fa2576040517f08c379a0000000000000000000000000000000000000000000000000000000008152600401612f9990614468565b60405180910390fd5b50505050565b60606000825190506000811415612fd15760405180602001604052806000815250915050613161565b60006003600283612fe291906147eb565b612fec9190614841565b6004612ff89190614872565b9050600060208261300991906147eb565b67ffffffffffffffff811115613048577f4e487b7100000000000000000000000000000000000000000000000000000000600052604160045260246000fd5b6040519080825280601f01601f19166020018201604052801561307a5781602001600182028036833780820191505090505b50905060006040518060600160405280604081526020016151a8604091399050600181016020830160005b8681101561311e5760038101905062ffffff818a015116603f8160121c168401518060081b905060ff603f83600c1c1686015116810190508060081b905060ff603f8360061c1686015116810190508060081b905060ff603f831686015116810190508060e01b905080845260048401935050506130a5565b506003860660018114613138576002811461314857613153565b613d3d60f01b6002830352613153565b603d60f81b60018303525b508484525050819450505050505b919050565b6131808282604051806020016040528060008152506133e8565b5050565b61321e83838360405160240161319c9392919061442a565b6040516020818303038152906040527f969cdd03000000000000000000000000000000000000000000000000000000007bffffffffffffffffffffffffffffffffffffffffffffffffffffffff19166020820180517bffffffffffffffffffffffffffffffffffffffffffffffffffffffff8381831617835250505050613223565b505050565b60008151905060006a636f6e736f6c652e6c6f679050602083016000808483855afa5050505050565b505050565b60006132728473ffffffffffffffffffffffffffffffffffffffff16613443565b156133db578373ffffffffffffffffffffffffffffffffffffffff1663150b7a0261329b6126f0565b8786866040518563ffffffff1660e01b81526004016132bd9493929190614179565b602060405180830381600087803b1580156132d757600080fd5b505af192505050801561330857506040513d601f19601f8201168201806040525081019061330591906139bf565b60015b61338b573d8060008114613338576040519150601f19603f3d011682016040523d82523d6000602084013e61333d565b606091505b50600081511415613383576040517f08c379a000000000000000000000000000000000000000000000000000000000815260040161337a90614468565b60405180910390fd5b805181602001fd5b63150b7a0260e01b7bffffffffffffffffffffffffffffffffffffffffffffffffffffffff1916817bffffffffffffffffffffffffffffffffffffffffffffffffffffffff1916149150506133e0565b600190505b949350505050565b6133f28383613456565b6133ff6000848484613251565b61343e576040517f08c379a000000000000000000000000000000000000000000000000000000000815260040161343590614468565b60405180910390fd5b505050565b600080823b905060008111915050919050565b600073ffffffffffffffffffffffffffffffffffffffff168273ffffffffffffffffffffffffffffffffffffffff1614156134c6576040517f08c379a00000000000000000000000000000000000000000000000000000000081526004016134bd90614588565b60405180910390fd5b6134cf81612684565b1561350f576040517f08c379a000000000000000000000000000000000000000000000000000000000815260040161350690614488565b60405180910390fd5b61351b6000838361324c565b6001600360008473ffffffffffffffffffffffffffffffffffffffff1673ffffffffffffffffffffffffffffffffffffffff168152602001908152602001600020600082825461356b91906147eb565b92505081905550816002600083815260200190815260200160002060006101000a81548173ffffffffffffffffffffffffffffffffffffffff021916908373ffffffffffffffffffffffffffffffffffffffff160217905550808273ffffffffffffffffffffffffffffffffffffffff16600073ffffffffffffffffffffffffffffffffffffffff167fddf252ad1be2c89b69c2b068fc378daa952ba7f163c4a11628f55a4df523b3ef60405160405180910390a45050565b6040518060800160405280606081526020016060815260200160008152602001600081525090565b6040518060a0016040528060008152602001606081526020016060815260200160008152602001600081525090565b828054613687906149b6565b90600052602060002090601f0160209004810192826136a957600085556136f0565b82601f106136c257805160ff19168380011785556136f0565b828001600101855582156136f0579182015b828111156136ef5782518255916020019190600101906136d4565b5b5090506136fd9190613701565b5090565b5b8082111561371a576000816000905550600101613702565b5090565b600061373161372c8461472d565b614708565b90508281526020810184848401111561374957600080fd5b613754848285614974565b509392505050565b60008135905061376b81615120565b92915050565b60008135905061378081615137565b92915050565b6000813590506137958161514e565b92915050565b6000815190506137aa8161514e565b92915050565b600082601f8301126137c157600080fd5b81356137d184826020860161371e565b91505092915050565b6000813590506137e981615165565b92915050565b60006020828403121561380157600080fd5b600061380f8482850161375c565b91505092915050565b6000806040838503121561382b57600080fd5b60006138398582860161375c565b925050602061384a8582860161375c565b9150509250929050565b60008060006060848603121561386957600080fd5b60006138778682870161375c565b93505060206138888682870161375c565b9250506040613899868287016137da565b9150509250925092565b600080600080608085870312156138b957600080fd5b60006138c78782880161375c565b94505060206138d88782880161375c565b93505060406138e9878288016137da565b925050606085013567ffffffffffffffff81111561390657600080fd5b613912878288016137b0565b91505092959194509250565b6000806040838503121561393157600080fd5b600061393f8582860161375c565b925050602061395085828601613771565b9150509250929050565b6000806040838503121561396d57600080fd5b600061397b8582860161375c565b925050602061398c858286016137da565b9150509250929050565b6000602082840312156139a857600080fd5b60006139b684828501613786565b91505092915050565b6000602082840312156139d157600080fd5b60006139df8482850161379b565b91505092915050565b6000602082840312156139fa57600080fd5b6000613a08848285016137da565b91505092915050565b600080600060608486031215613a2657600080fd5b6000613a34868287016137da565b9350506020613a45868287016137da565b9250506040613a56868287016137da565b9150509250925092565b6000613a6c8383613f4f565b905092915050565b613a7d81614900565b82525050565b6000613a8e8261476e565b613a98818561479c565b935083602082028501613aaa8561475e565b8060005b85811015613ae65784840389528151613ac78582613a60565b9450613ad28361478f565b925060208a01995050600181019050613aae565b50829750879550505050505092915050565b613b0181614912565b82525050565b6000613b1282614779565b613b1c81856147ad565b9350613b2c818560208601614983565b613b3581614b4f565b840191505092915050565b6000613b4b82614784565b613b5581856147be565b9350613b65818560208601614983565b613b6e81614b4f565b840191505092915050565b6000613b8482614784565b613b8e81856147cf565b9350613b9e818560208601614983565b613ba781614b4f565b840191505092915050565b6000613bbd82614784565b613bc781856147e0565b9350613bd7818560208601614983565b80840191505092915050565b6000613bf0600b836147e0565b9150613bfb82614b60565b600b82019050919050565b6000613c136032836147cf565b9150613c1e82614b89565b604082019050919050565b6000613c36601c836147cf565b9150613c4182614bd8565b602082019050919050565b6000613c59600e836147e0565b9150613c6482614c01565b600e82019050919050565b6000613c7c6024836147cf565b9150613c8782614c2a565b604082019050919050565b6000613c9f6019836147cf565b9150613caa82614c79565b602082019050919050565b6000613cc26024836147cf565b9150613ccd82614ca2565b604082019050919050565b6000613ce5602c836147cf565b9150613cf082614cf1565b604082019050919050565b6000613d086038836147e0565b9150613d1382614d40565b603882019050919050565b6000613d2b6061836147e0565b9150613d3682614d8f565b606182019050919050565b6000613d4e6038836147cf565b9150613d5982614e2a565b604082019050919050565b6000613d71602a836147cf565b9150613d7c82614e79565b604082019050919050565b6000613d946029836147cf565b9150613d9f82614ec8565b604082019050919050565b6000613db76004836147e0565b9150613dc282614f17565b600482019050919050565b6000613dda6020836147cf565b9150613de582614f40565b602082019050919050565b6000613dfd602c836147cf565b9150613e0882614f69565b604082019050919050565b6000613e206029836147cf565b9150613e2b82614fb8565b604082019050919050565b6000613e43600a836147e0565b9150613e4e82615007565b600a82019050919050565b6000613e666020836147cf565b9150613e7182615030565b602082019050919050565b6000613e896021836147cf565b9150613e9482615059565b604082019050919050565b6000613eac601d836147e0565b9150613eb7826150a8565b601d82019050919050565b6000613ecf6031836147cf565b9150613eda826150d1565b604082019050919050565b60006080830160008301518482036000860152613f028282613b40565b91505060208301518482036020860152613f1c8282613b40565b9150506040830151613f316040860182614049565b506060830151613f446060860182614049565b508091505092915050565b600060a083016000830151613f676000860182614049565b5060208301518482036020860152613f7f8282613b40565b91505060408301518482036040860152613f998282613b40565b9150506060830151613fae6060860182614049565b506080830151613fc16080860182614049565b508091505092915050565b600060a083016000830151613fe46000860182614049565b5060208301518482036020860152613ffc8282613b40565b915050604083015184820360408601526140168282613b40565b915050606083015161402b6060860182614049565b50608083015161403e6080860182614049565b508091505092915050565b6140528161496a565b82525050565b6140618161496a565b82525050565b60006140738284613bb2565b915081905092915050565b600061408a8286613bb2565b91506140968285613bb2565b91506140a28284613bb2565b9150819050949350505050565b60006140ba82613e36565b91506140c68288613bb2565b91506140d182613be3565b91506140dd8287613bb2565b91506140e882613d1e565b91506140f48286613bb2565b91506140ff82613cfb565b915061410b8285613bb2565b915061411682613c4c565b91506141228284613bb2565b915061412d82613daa565b91508190509695505050505050565b600061414782613e9f565b91506141538284613bb2565b915081905092915050565b60006020820190506141736000830184613a74565b92915050565b600060808201905061418e6000830187613a74565b61419b6020830186613a74565b6141a86040830185614058565b81810360608301526141ba8184613b07565b905095945050505050565b60006060820190506141da6000830186613a74565b6141e76020830185614058565b6141f46040830184614058565b949350505050565b600060c0820190506142116000830189613a74565b61421e6020830188614058565b61422b6040830187614058565b6142386060830186614058565b6142456080830185614058565b61425260a0830184614058565b979650505050505050565b600060208201905081810360008301526142778184613a83565b905092915050565b60006020820190506142946000830184613af8565b92915050565b600060208201905081810360008301526142b48184613b79565b905092915050565b600060608201905081810360008301526142d68186613b79565b905081810360208301526142ea8185613b79565b905081810360408301526142fe8184613b79565b9050949350505050565b600060608201905081810360008301526143228186613b79565b905081810360208301526143368185613b79565b90506143456040830184614058565b949350505050565b600060808201905081810360008301526143678187613b79565b9050818103602083015261437b8186613b79565b905061438a6040830185614058565b818103606083015261439c8184613b79565b905095945050505050565b600060808201905081810360008301526143c18187613b79565b905081810360208301526143d58186613b79565b90506143e46040830185614058565b6143f16060830184614058565b95945050505050565b600060408201905081810360008301526144148185613b79565b90506144236020830184614058565b9392505050565b600060608201905081810360008301526144448186613b79565b90506144536020830185614058565b6144606040830184614058565b949350505050565b6000602082019050818103600083015261448181613c06565b9050919050565b600060208201905081810360008301526144a181613c29565b9050919050565b600060208201905081810360008301526144c181613c6f565b9050919050565b600060208201905081810360008301526144e181613c92565b9050919050565b6000602082019050818103600083015261450181613cb5565b9050919050565b6000602082019050818103600083015261452181613cd8565b9050919050565b6000602082019050818103600083015261454181613d41565b9050919050565b6000602082019050818103600083015261456181613d64565b9050919050565b6000602082019050818103600083015261458181613d87565b9050919050565b600060208201905081810360008301526145a181613dcd565b9050919050565b600060208201905081810360008301526145c181613df0565b9050919050565b600060208201905081810360008301526145e181613e13565b9050919050565b6000602082019050818103600083015261460181613e59565b9050919050565b6000602082019050818103600083015261462181613e7c565b9050919050565b6000602082019050818103600083015261464181613ec2565b9050919050565b600060208201905081810360008301526146628184613ee5565b905092915050565b600060208201905081810360008301526146848184613fcc565b905092915050565b60006020820190506146a16000830184614058565b92915050565b600060a0820190506146bc6000830188614058565b81810360208301526146ce8187613b79565b905081810360408301526146e28186613b79565b90506146f16060830185614058565b6146fe6080830184614058565b9695505050505050565b6000614712614723565b905061471e82826149e8565b919050565b6000604051905090565b600067ffffffffffffffff82111561474857614747614b20565b5b61475182614b4f565b9050602081019050919050565b6000819050602082019050919050565b600081519050919050565b600081519050919050565b600081519050919050565b6000602082019050919050565b600082825260208201905092915050565b600082825260208201905092915050565b600082825260208201905092915050565b600082825260208201905092915050565b600081905092915050565b60006147f68261496a565b91506148018361496a565b9250827fffffffffffffffffffffffffffffffffffffffffffffffffffffffffffffffff0382111561483657614835614a93565b5b828201905092915050565b600061484c8261496a565b91506148578361496a565b92508261486757614866614ac2565b5b828204905092915050565b600061487d8261496a565b91506148888361496a565b9250817fffffffffffffffffffffffffffffffffffffffffffffffffffffffffffffffff04831182151516156148c1576148c0614a93565b5b828202905092915050565b60006148d78261496a565b91506148e28361496a565b9250828210156148f5576148f4614a93565b5b828203905092915050565b600061490b8261494a565b9050919050565b60008115159050919050565b60007fffffffff0000000000000000000000000000000000000000000000000000000082169050919050565b600073ffffffffffffffffffffffffffffffffffffffff82169050919050565b6000819050919050565b82818337600083830152505050565b60005b838110156149a1578082015181840152602081019050614986565b838111156149b0576000848401525b50505050565b600060028204905060018216806149ce57607f821691505b602082108114156149e2576149e1614af1565b5b50919050565b6149f182614b4f565b810181811067ffffffffffffffff82111715614a1057614a0f614b20565b5b80604052505050565b6000614a248261496a565b91507fffffffffffffffffffffffffffffffffffffffffffffffffffffffffffffffff821415614a5757614a56614a93565b5b600182019050919050565b6000614a6d8261496a565b9150614a788361496a565b925082614a8857614a87614ac2565b5b828206905092915050565b7f4e487b7100000000000000000000000000000000000000000000000000000000600052601160045260246000fd5b7f4e487b7100000000000000000000000000000000000000000000000000000000600052601260045260246000fd5b7f4e487b7100000000000000000000000000000000000000000000000000000000600052602260045260246000fd5b7f4e487b7100000000000000000000000000000000000000000000000000000000600052604160045260246000fd5b6000601f19601f8301169050919050565b7f202d2d204e465420233a20000000000000000000000000000000000000000000600082015250565b7f4552433732313a207472616e7366657220746f206e6f6e20455243373231526560008201527f63656976657220696d706c656d656e7465720000000000000000000000000000602082015250565b7f4552433732313a20746f6b656e20616c7265616479206d696e74656400000000600082015250565b7f2c20226d61785f76616c7565223a000000000000000000000000000000000000600082015250565b7f4552433732313a207472616e7366657220746f20746865207a65726f2061646460008201527f7265737300000000000000000000000000000000000000000000000000000000602082015250565b7f4552433732313a20617070726f766520746f2063616c6c657200000000000000600082015250565b7f7468652062696720626f737320646f65736e277420686176652074686174206d60008201527f7563682100000000000000000000000000000000000000000000000000000000602082015250565b7f4552433732313a206f70657261746f7220717565727920666f72206e6f6e657860008201527f697374656e7420746f6b656e0000000000000000000000000000000000000000602082015250565b7f222c202261747472696275746573223a205b207b202274726169745f7479706560008201527f223a202242616e6b726f6c6c222c202276616c7565223a200000000000000000602082015250565b7f222c20226465736372697074696f6e223a20225468697320697320616e204e4660008201527f542074686174206c6574732070656f706c6520706c617920696e20746865206760208201527f616d6520526f7368616d626f21222c2022696d616765223a2022697066733a2f60408201527f2f00000000000000000000000000000000000000000000000000000000000000606082015250565b7f4552433732313a20617070726f76652063616c6c6572206973206e6f74206f7760008201527f6e6572206e6f7220617070726f76656420666f7220616c6c0000000000000000602082015250565b7f4552433732313a2062616c616e636520717565727920666f7220746865207a6560008201527f726f206164647265737300000000000000000000000000000000000000000000602082015250565b7f4552433732313a206f776e657220717565727920666f72206e6f6e657869737460008201527f656e7420746f6b656e0000000000000000000000000000000000000000000000602082015250565b7f7d205d7d00000000000000000000000000000000000000000000000000000000600082015250565b7f4552433732313a206d696e7420746f20746865207a65726f2061646472657373600082015250565b7f4552433732313a20617070726f76656420717565727920666f72206e6f6e657860008201527f697374656e7420746f6b656e0000000000000000000000000000000000000000602082015250565b7f4552433732313a207472616e73666572206f6620746f6b656e2074686174206960008201527f73206e6f74206f776e0000000000000000000000000000000000000000000000602082015250565b7f7b226e616d65223a202200000000000000000000000000000000000000000000600082015250565b7f796f752063616e2774206265742074686174206d7563682c20636f77626f7921600082015250565b7f4552433732313a20617070726f76616c20746f2063757272656e74206f776e6560008201527f7200000000000000000000000000000000000000000000000000000000000000602082015250565b7f646174613a6170706c69636174696f6e2f6a736f6e3b6261736536342c000000600082015250565b7f4552433732313a207472616e736665722063616c6c6572206973206e6f74206f60008201527f776e6572206e6f7220617070726f766564000000000000000000000000000000602082015250565b61512981614900565b811461513457600080fd5b50565b61514081614912565b811461514b57600080fd5b50565b6151578161491e565b811461516257600080fd5b50565b61516e8161496a565b811461517957600080fd5b5056fe4d696e746564204e465420746f6b656e496420257320616e6420636861726163746572496e6465782025734142434445464748494a4b4c4d4e4f505152535455565758595a6162636465666768696a6b6c6d6e6f707172737475767778797a303132333435363738392b2fa264697066735822122032e2cae5656cb9d6c7b4cc1929ed31a1f88c497a2e6097da3c2cf833d2f9900864736f6c63430008040033446f6e6520696e697469616c697a696e6720257320772f2062616e6b726f6c6c2025732c20696d67202573",
  "linkReferences": {},
  "deployedLinkReferences": {}
}